{
  "_format": "hh-sol-artifact-1",
  "contractName": "MyERC721",
  "sourceName": "contracts/MyERC721.sol",
  "abi": [
    {
      "inputs": [],
      "stateMutability": "nonpayable",
      "type": "constructor"
    },
    {
      "anonymous": false,
      "inputs": [
        {
          "indexed": true,
          "internalType": "address",
          "name": "owner",
          "type": "address"
        },
        {
          "indexed": true,
          "internalType": "address",
          "name": "approved",
          "type": "address"
        },
        {
          "indexed": true,
          "internalType": "uint256",
          "name": "tokenId",
          "type": "uint256"
        }
      ],
      "name": "Approval",
      "type": "event"
    },
    {
      "anonymous": false,
      "inputs": [
        {
          "indexed": true,
          "internalType": "address",
          "name": "owner",
          "type": "address"
        },
        {
          "indexed": true,
          "internalType": "address",
          "name": "operator",
          "type": "address"
        },
        {
          "indexed": false,
          "internalType": "bool",
          "name": "approved",
          "type": "bool"
        }
      ],
      "name": "ApprovalForAll",
      "type": "event"
    },
    {
      "anonymous": false,
      "inputs": [
        {
          "indexed": false,
          "internalType": "string",
          "name": "",
          "type": "string"
        }
      ],
      "name": "Log",
      "type": "event"
    },
    {
      "anonymous": false,
      "inputs": [
        {
          "indexed": true,
          "internalType": "address",
          "name": "from",
          "type": "address"
        },
        {
          "indexed": true,
          "internalType": "address",
          "name": "to",
          "type": "address"
        },
        {
          "indexed": true,
          "internalType": "uint256",
          "name": "tokenId",
          "type": "uint256"
        }
      ],
      "name": "Transfer",
      "type": "event"
    },
    {
      "inputs": [
        {
          "internalType": "address",
          "name": "to",
          "type": "address"
        },
        {
          "internalType": "uint256",
          "name": "tokenId",
          "type": "uint256"
        }
      ],
      "name": "approve",
      "outputs": [],
      "stateMutability": "nonpayable",
      "type": "function"
    },
    {
      "inputs": [
        {
          "internalType": "address",
          "name": "owner",
          "type": "address"
        }
      ],
      "name": "balanceOf",
      "outputs": [
        {
          "internalType": "uint256",
          "name": "",
          "type": "uint256"
        }
      ],
      "stateMutability": "view",
      "type": "function"
    },
    {
      "inputs": [
        {
          "internalType": "uint256",
          "name": "tokenId",
          "type": "uint256"
        }
      ],
      "name": "getApproved",
      "outputs": [
        {
          "internalType": "address",
          "name": "",
          "type": "address"
        }
      ],
      "stateMutability": "view",
      "type": "function"
    },
    {
      "inputs": [
        {
          "internalType": "address",
          "name": "student",
          "type": "address"
        }
      ],
      "name": "getNft",
      "outputs": [
        {
          "internalType": "string",
          "name": "",
          "type": "string"
        }
      ],
      "stateMutability": "view",
      "type": "function"
    },
    {
      "inputs": [
        {
          "internalType": "address",
          "name": "owner",
          "type": "address"
        },
        {
          "internalType": "address",
          "name": "operator",
          "type": "address"
        }
      ],
      "name": "isApprovedForAll",
      "outputs": [
        {
          "internalType": "bool",
          "name": "",
          "type": "bool"
        }
      ],
      "stateMutability": "view",
      "type": "function"
    },
    {
      "inputs": [
        {
          "internalType": "address",
          "name": "_recipient",
          "type": "address"
        }
      ],
      "name": "mintNFT",
      "outputs": [
        {
          "internalType": "uint256",
          "name": "_mintTokenId",
          "type": "uint256"
        }
      ],
      "stateMutability": "nonpayable",
      "type": "function"
    },
    {
      "inputs": [],
      "name": "name",
      "outputs": [
        {
          "internalType": "string",
          "name": "",
          "type": "string"
        }
      ],
      "stateMutability": "view",
      "type": "function"
    },
    {
      "inputs": [
        {
          "internalType": "uint256",
          "name": "tokenId",
          "type": "uint256"
        }
      ],
      "name": "ownerOf",
      "outputs": [
        {
          "internalType": "address",
          "name": "",
          "type": "address"
        }
      ],
      "stateMutability": "view",
      "type": "function"
    },
    {
      "inputs": [
        {
          "internalType": "address",
          "name": "from",
          "type": "address"
        },
        {
          "internalType": "address",
          "name": "to",
          "type": "address"
        },
        {
          "internalType": "uint256",
          "name": "tokenId",
          "type": "uint256"
        }
      ],
      "name": "safeTransferFrom",
      "outputs": [],
      "stateMutability": "nonpayable",
      "type": "function"
    },
    {
      "inputs": [
        {
          "internalType": "address",
          "name": "from",
          "type": "address"
        },
        {
          "internalType": "address",
          "name": "to",
          "type": "address"
        },
        {
          "internalType": "uint256",
          "name": "tokenId",
          "type": "uint256"
        },
        {
          "internalType": "bytes",
          "name": "data",
          "type": "bytes"
        }
      ],
      "name": "safeTransferFrom",
      "outputs": [],
      "stateMutability": "nonpayable",
      "type": "function"
    },
    {
      "inputs": [
        {
          "internalType": "address",
          "name": "operator",
          "type": "address"
        },
        {
          "internalType": "bool",
          "name": "approved",
          "type": "bool"
        }
      ],
      "name": "setApprovalForAll",
      "outputs": [],
      "stateMutability": "nonpayable",
      "type": "function"
    },
    {
      "inputs": [
        {
          "internalType": "bytes4",
          "name": "interfaceId",
          "type": "bytes4"
        }
      ],
      "name": "supportsInterface",
      "outputs": [
        {
          "internalType": "bool",
          "name": "",
          "type": "bool"
        }
      ],
      "stateMutability": "view",
      "type": "function"
    },
    {
      "inputs": [],
      "name": "symbol",
      "outputs": [
        {
          "internalType": "string",
          "name": "",
          "type": "string"
        }
      ],
      "stateMutability": "view",
      "type": "function"
    },
    {
      "inputs": [
        {
          "internalType": "uint256",
          "name": "index",
          "type": "uint256"
        }
      ],
      "name": "tokenByIndex",
      "outputs": [
        {
          "internalType": "uint256",
          "name": "",
          "type": "uint256"
        }
      ],
      "stateMutability": "view",
      "type": "function"
    },
    {
      "inputs": [
        {
          "internalType": "address",
          "name": "owner",
          "type": "address"
        },
        {
          "internalType": "uint256",
          "name": "index",
          "type": "uint256"
        }
      ],
      "name": "tokenOfOwnerByIndex",
      "outputs": [
        {
          "internalType": "uint256",
          "name": "",
          "type": "uint256"
        }
      ],
      "stateMutability": "view",
      "type": "function"
    },
    {
      "inputs": [
        {
          "internalType": "uint256",
          "name": "tokenId",
          "type": "uint256"
        }
      ],
      "name": "tokenURI",
      "outputs": [
        {
          "internalType": "string",
          "name": "",
          "type": "string"
        }
      ],
      "stateMutability": "view",
      "type": "function"
    },
    {
      "inputs": [],
      "name": "totalSupply",
      "outputs": [
        {
          "internalType": "uint256",
          "name": "",
          "type": "uint256"
        }
      ],
      "stateMutability": "view",
      "type": "function"
    },
    {
      "inputs": [
        {
          "internalType": "address",
          "name": "from",
          "type": "address"
        },
        {
          "internalType": "address",
          "name": "to",
          "type": "address"
        },
        {
          "internalType": "uint256",
          "name": "tokenId",
          "type": "uint256"
        }
      ],
      "name": "transferFrom",
      "outputs": [],
      "stateMutability": "nonpayable",
      "type": "function"
    }
  ],
  "bytecode": "0x60806040523480156200001157600080fd5b506040518060400160405280600381526020017f4e465400000000000000000000000000000000000000000000000000000000008152506040518060400160405280600381526020017f4e46540000000000000000000000000000000000000000000000000000000000815250816000908051906020019062000096929190620000b8565b508060019080519060200190620000af929190620000b8565b505050620001cd565b828054620000c69062000197565b90600052602060002090601f016020900481019282620000ea576000855562000136565b82601f106200010557805160ff191683800117855562000136565b8280016001018555821562000136579182015b828111156200013557825182559160200191906001019062000118565b5b50905062000145919062000149565b5090565b5b80821115620001645760008160009055506001016200014a565b5090565b7f4e487b7100000000000000000000000000000000000000000000000000000000600052602260045260246000fd5b60006002820490506001821680620001b057607f821691505b60208210811415620001c757620001c662000168565b5b50919050565b6136cc80620001dd6000396000f3fe608060405234801561001057600080fd5b50600436106101165760003560e01c80634f6ccce7116100a257806395d89b411161007157806395d89b411461032b578063a22cb46514610349578063b88d4fde14610365578063c87b56dd14610381578063e985e9c5146103b157610116565b80634f6ccce71461026b57806354ba0f271461029b5780636352211e146102cb57806370a08231146102fb57610116565b806310556c86116100e957806310556c86146101b557806318160ddd146101e557806323b872dd146102035780632f745c591461021f57806342842e0e1461024f57610116565b806301ffc9a71461011b57806306fdde031461014b578063081812fc14610169578063095ea7b314610199575b600080fd5b610135600480360381019061013091906124c6565b6103e1565b604051610142919061250e565b60405180910390f35b6101536103f3565b60405161016091906125c2565b60405180910390f35b610183600480360381019061017e919061261a565b610485565b6040516101909190612688565b60405180910390f35b6101b360048036038101906101ae91906126cf565b6104cb565b005b6101cf60048036038101906101ca919061270f565b6105e3565b6040516101dc91906125c2565b60405180910390f35b6101ed6106b4565b6040516101fa919061274b565b60405180910390f35b61021d60048036038101906102189190612766565b6106c1565b005b610239600480360381019061023491906126cf565b610721565b604051610246919061274b565b60405180910390f35b61026960048036038101906102649190612766565b6107c6565b005b6102856004803603810190610280919061261a565b6107e6565b604051610292919061274b565b60405180910390f35b6102b560048036038101906102b0919061270f565b610857565b6040516102c2919061274b565b60405180910390f35b6102e560048036038101906102e0919061261a565b6109c6565b6040516102f29190612688565b60405180910390f35b6103156004803603810190610310919061270f565b610a78565b604051610322919061274b565b60405180910390f35b610333610b30565b60405161034091906125c2565b60405180910390f35b610363600480360381019061035e91906127e5565b610bc2565b005b61037f600480360381019061037a919061295a565b610bd8565b005b61039b6004803603810190610396919061261a565b610c3a565b6040516103a891906125c2565b60405180910390f35b6103cb60048036038101906103c691906129dd565b610c4c565b6040516103d8919061250e565b60405180910390f35b60006103ec82610ce0565b9050919050565b60606000805461040290612a4c565b80601f016020809104026020016040519081016040528092919081815260200182805461042e90612a4c565b801561047b5780601f106104505761010080835404028352916020019161047b565b820191906000526020600020905b81548152906001019060200180831161045e57829003601f168201915b5050505050905090565b600061049082610d5a565b6004600083815260200190815260200160002060009054906101000a900473ffffffffffffffffffffffffffffffffffffffff169050919050565b60006104d6826109c6565b90508073ffffffffffffffffffffffffffffffffffffffff168373ffffffffffffffffffffffffffffffffffffffff161415610547576040517f08c379a000000000000000000000000000000000000000000000000000000000815260040161053e90612af0565b60405180910390fd5b8073ffffffffffffffffffffffffffffffffffffffff16610566610da5565b73ffffffffffffffffffffffffffffffffffffffff16148061059557506105948161058f610da5565b610c4c565b5b6105d4576040517f08c379a00000000000000000000000000000000000000000000000000000000081526004016105cb90612b82565b60405180910390fd5b6105de8383610dad565b505050565b6060600c60008373ffffffffffffffffffffffffffffffffffffffff1673ffffffffffffffffffffffffffffffffffffffff168152602001908152602001600020805461062f90612a4c565b80601f016020809104026020016040519081016040528092919081815260200182805461065b90612a4c565b80156106a85780601f1061067d576101008083540402835291602001916106a8565b820191906000526020600020905b81548152906001019060200180831161068b57829003601f168201915b50505050509050919050565b6000600880549050905090565b6106d26106cc610da5565b82610e66565b610711576040517f08c379a000000000000000000000000000000000000000000000000000000000815260040161070890612c14565b60405180910390fd5b61071c838383610efb565b505050565b600061072c83610a78565b821061076d576040517f08c379a000000000000000000000000000000000000000000000000000000000815260040161076490612ca6565b60405180910390fd5b600660008473ffffffffffffffffffffffffffffffffffffffff1673ffffffffffffffffffffffffffffffffffffffff168152602001908152602001600020600083815260200190815260200160002054905092915050565b6107e183838360405180602001604052806000815250610bd8565b505050565b60006107f06106b4565b8210610831576040517f08c379a000000000000000000000000000000000000000000000000000000000815260040161082890612d38565b60405180910390fd5b6008828154811061084557610844612d58565b5b90600052602060002001549050919050565b6000610863600b611162565b600061086f600b611178565b905061087b8382611186565b7fcf34ef537ac33ee1ac626ca1587a0a7e8e51561e5514f8cb36afa1c5102b3bab6040516108a890612dd3565b60405180910390a160006108bb82611360565b90507fcf34ef537ac33ee1ac626ca1587a0a7e8e51561e5514f8cb36afa1c5102b3bab6040516108ea90612e3f565b60405180910390a17fcf34ef537ac33ee1ac626ca1587a0a7e8e51561e5514f8cb36afa1c5102b3bab8160405161092191906125c2565b60405180910390a161093382826113f1565b7fcf34ef537ac33ee1ac626ca1587a0a7e8e51561e5514f8cb36afa1c5102b3bab60405161096090612eab565b60405180910390a180600c60008673ffffffffffffffffffffffffffffffffffffffff1673ffffffffffffffffffffffffffffffffffffffff16815260200190815260200160002090805190602001906109bb9291906123b7565b508192505050919050565b6000806002600084815260200190815260200160002060009054906101000a900473ffffffffffffffffffffffffffffffffffffffff169050600073ffffffffffffffffffffffffffffffffffffffff168173ffffffffffffffffffffffffffffffffffffffff161415610a6f576040517f08c379a0000000000000000000000000000000000000000000000000000000008152600401610a6690612f17565b60405180910390fd5b80915050919050565b60008073ffffffffffffffffffffffffffffffffffffffff168273ffffffffffffffffffffffffffffffffffffffff161415610ae9576040517f08c379a0000000000000000000000000000000000000000000000000000000008152600401610ae090612fa9565b60405180910390fd5b600360008373ffffffffffffffffffffffffffffffffffffffff1673ffffffffffffffffffffffffffffffffffffffff168152602001908152602001600020549050919050565b606060018054610b3f90612a4c565b80601f0160208091040260200160405190810160405280929190818152602001828054610b6b90612a4c565b8015610bb85780601f10610b8d57610100808354040283529160200191610bb8565b820191906000526020600020905b815481529060010190602001808311610b9b57829003601f168201915b5050505050905090565b610bd4610bcd610da5565b8383611465565b5050565b610be9610be3610da5565b83610e66565b610c28576040517f08c379a0000000000000000000000000000000000000000000000000000000008152600401610c1f90612c14565b60405180910390fd5b610c34848484846115d2565b50505050565b6060610c458261162e565b9050919050565b6000600560008473ffffffffffffffffffffffffffffffffffffffff1673ffffffffffffffffffffffffffffffffffffffff16815260200190815260200160002060008373ffffffffffffffffffffffffffffffffffffffff1673ffffffffffffffffffffffffffffffffffffffff16815260200190815260200160002060009054906101000a900460ff16905092915050565b60007f780e9d63000000000000000000000000000000000000000000000000000000007bffffffffffffffffffffffffffffffffffffffffffffffffffffffff1916827bffffffffffffffffffffffffffffffffffffffffffffffffffffffff19161480610d535750610d5282611741565b5b9050919050565b610d6381611823565b610da2576040517f08c379a0000000000000000000000000000000000000000000000000000000008152600401610d9990612f17565b60405180910390fd5b50565b600033905090565b816004600083815260200190815260200160002060006101000a81548173ffffffffffffffffffffffffffffffffffffffff021916908373ffffffffffffffffffffffffffffffffffffffff160217905550808273ffffffffffffffffffffffffffffffffffffffff16610e20836109c6565b73ffffffffffffffffffffffffffffffffffffffff167f8c5be1e5ebec7d5bd14f71427d1e84f3dd0314c0f7b2291e5b200ac8c7c3b92560405160405180910390a45050565b600080610e72836109c6565b90508073ffffffffffffffffffffffffffffffffffffffff168473ffffffffffffffffffffffffffffffffffffffff161480610eb45750610eb38185610c4c565b5b80610ef257508373ffffffffffffffffffffffffffffffffffffffff16610eda84610485565b73ffffffffffffffffffffffffffffffffffffffff16145b91505092915050565b8273ffffffffffffffffffffffffffffffffffffffff16610f1b826109c6565b73ffffffffffffffffffffffffffffffffffffffff1614610f71576040517f08c379a0000000000000000000000000000000000000000000000000000000008152600401610f689061303b565b60405180910390fd5b600073ffffffffffffffffffffffffffffffffffffffff168273ffffffffffffffffffffffffffffffffffffffff161415610fe1576040517f08c379a0000000000000000000000000000000000000000000000000000000008152600401610fd8906130cd565b60405180910390fd5b610fec83838361188f565b610ff7600082610dad565b6001600360008573ffffffffffffffffffffffffffffffffffffffff1673ffffffffffffffffffffffffffffffffffffffff1681526020019081526020016000206000828254611047919061311c565b925050819055506001600360008473ffffffffffffffffffffffffffffffffffffffff1673ffffffffffffffffffffffffffffffffffffffff168152602001908152602001600020600082825461109e9190613150565b92505081905550816002600083815260200190815260200160002060006101000a81548173ffffffffffffffffffffffffffffffffffffffff021916908373ffffffffffffffffffffffffffffffffffffffff160217905550808273ffffffffffffffffffffffffffffffffffffffff168473ffffffffffffffffffffffffffffffffffffffff167fddf252ad1be2c89b69c2b068fc378daa952ba7f163c4a11628f55a4df523b3ef60405160405180910390a461115d83838361189f565b505050565b6001816000016000828254019250508190555050565b600081600001549050919050565b600073ffffffffffffffffffffffffffffffffffffffff168273ffffffffffffffffffffffffffffffffffffffff1614156111f6576040517f08c379a00000000000000000000000000000000000000000000000000000000081526004016111ed906131f2565b60405180910390fd5b6111ff81611823565b1561123f576040517f08c379a00000000000000000000000000000000000000000000000000000000081526004016112369061325e565b60405180910390fd5b61124b6000838361188f565b6001600360008473ffffffffffffffffffffffffffffffffffffffff1673ffffffffffffffffffffffffffffffffffffffff168152602001908152602001600020600082825461129b9190613150565b92505081905550816002600083815260200190815260200160002060006101000a81548173ffffffffffffffffffffffffffffffffffffffff021916908373ffffffffffffffffffffffffffffffffffffffff160217905550808273ffffffffffffffffffffffffffffffffffffffff16600073ffffffffffffffffffffffffffffffffffffffff167fddf252ad1be2c89b69c2b068fc378daa952ba7f163c4a11628f55a4df523b3ef60405160405180910390a461135c6000838361189f565b5050565b606060008214156113a8576040518060400160405280600181526020017f300000000000000000000000000000000000000000000000000000000000000081525090506113ec565b5b600082146113eb576000600a836113c091906132ad565b9050600a836113cf91906132de565b92506113e36113dd826118a4565b836119fe565b9150506113a9565b5b919050565b6113fa82611823565b611439576040517f08c379a000000000000000000000000000000000000000000000000000000000815260040161143090613381565b60405180910390fd5b80600a600084815260200190815260200160002090805190602001906114609291906123b7565b505050565b8173ffffffffffffffffffffffffffffffffffffffff168373ffffffffffffffffffffffffffffffffffffffff1614156114d4576040517f08c379a00000000000000000000000000000000000000000000000000000000081526004016114cb906133ed565b60405180910390fd5b80600560008573ffffffffffffffffffffffffffffffffffffffff1673ffffffffffffffffffffffffffffffffffffffff16815260200190815260200160002060008473ffffffffffffffffffffffffffffffffffffffff1673ffffffffffffffffffffffffffffffffffffffff16815260200190815260200160002060006101000a81548160ff0219169083151502179055508173ffffffffffffffffffffffffffffffffffffffff168373ffffffffffffffffffffffffffffffffffffffff167f17307eab39ab6107e8899845ad3d59bd9653f200f220920489ca2b5937696c31836040516115c5919061250e565b60405180910390a3505050565b6115dd848484610efb565b6115e984848484611b94565b611628576040517f08c379a000000000000000000000000000000000000000000000000000000000815260040161161f9061347f565b60405180910390fd5b50505050565b606061163982610d5a565b6000600a6000848152602001908152602001600020805461165990612a4c565b80601f016020809104026020016040519081016040528092919081815260200182805461168590612a4c565b80156116d25780601f106116a7576101008083540402835291602001916116d2565b820191906000526020600020905b8154815290600101906020018083116116b557829003601f168201915b5050505050905060006116e3611d2b565b90506000815114156116f957819250505061173c565b60008251111561172e5780826040516020016117169291906134db565b6040516020818303038152906040529250505061173c565b61173784611d42565b925050505b919050565b60007f80ac58cd000000000000000000000000000000000000000000000000000000007bffffffffffffffffffffffffffffffffffffffffffffffffffffffff1916827bffffffffffffffffffffffffffffffffffffffffffffffffffffffff1916148061180c57507f5b5e139f000000000000000000000000000000000000000000000000000000007bffffffffffffffffffffffffffffffffffffffffffffffffffffffff1916827bffffffffffffffffffffffffffffffffffffffffffffffffffffffff1916145b8061181c575061181b82611daa565b5b9050919050565b60008073ffffffffffffffffffffffffffffffffffffffff166002600084815260200190815260200160002060009054906101000a900473ffffffffffffffffffffffffffffffffffffffff1673ffffffffffffffffffffffffffffffffffffffff1614159050919050565b61189a838383611e14565b505050565b505050565b606060006040518060400160405280601081526020017f303132333435363738396162636465660000000000000000000000000000000081525090506000836040516020016118f39190613520565b60405160208183030381529060405290506000600167ffffffffffffffff8111156119215761192061282f565b5b6040519080825280601f01601f1916602001820160405280156119535781602001600182028036833780820191505090505b509050600060018351611966919061311c565b905083600f60f81b84838151811061198157611980612d58565b5b602001015160f81c60f81b1660f81c60ff16815181106119a4576119a3612d58565b5b602001015160f81c60f81b826000815181106119c3576119c2612d58565b5b60200101907effffffffffffffffffffffffffffffffffffffffffffffffffffffffffffff1916908160001a90535081945050505050919050565b606060008390506000839050600081518351611a1a9190613150565b67ffffffffffffffff811115611a3357611a3261282f565b5b6040519080825280601f01601f191660200182016040528015611a655781602001600182028036833780820191505090505b50905060008190506000805b8551811015611af957858181518110611a8d57611a8c612d58565b5b602001015160f81c60f81b838380611aa49061353b565b945081518110611ab757611ab6612d58565b5b60200101907effffffffffffffffffffffffffffffffffffffffffffffffffffffffffffff1916908160001a9053508080611af19061353b565b915050611a71565b5060005b8451811015611b8557848181518110611b1957611b18612d58565b5b602001015160f81c60f81b838380611b309061353b565b945081518110611b4357611b42612d58565b5b60200101907effffffffffffffffffffffffffffffffffffffffffffffffffffffffffffff1916908160001a9053508080611b7d9061353b565b915050611afd565b50829550505050505092915050565b6000611bb58473ffffffffffffffffffffffffffffffffffffffff16611f28565b15611d1e578373ffffffffffffffffffffffffffffffffffffffff1663150b7a02611bde610da5565b8786866040518563ffffffff1660e01b8152600401611c0094939291906135d9565b602060405180830381600087803b158015611c1a57600080fd5b505af1925050508015611c4b57506040513d601f19601f82011682018060405250810190611c48919061363a565b60015b611cce573d8060008114611c7b576040519150601f19603f3d011682016040523d82523d6000602084013e611c80565b606091505b50600081511415611cc6576040517f08c379a0000000000000000000000000000000000000000000000000000000008152600401611cbd9061347f565b60405180910390fd5b805181602001fd5b63150b7a0260e01b7bffffffffffffffffffffffffffffffffffffffffffffffffffffffff1916817bffffffffffffffffffffffffffffffffffffffffffffffffffffffff191614915050611d23565b600190505b949350505050565b606060405180602001604052806000815250905090565b6060611d4d82610d5a565b6000611d57611d2b565b90506000815111611d775760405180602001604052806000815250611da2565b80611d8184611f4b565b604051602001611d929291906134db565b6040516020818303038152906040525b915050919050565b60007f01ffc9a7000000000000000000000000000000000000000000000000000000007bffffffffffffffffffffffffffffffffffffffffffffffffffffffff1916827bffffffffffffffffffffffffffffffffffffffffffffffffffffffff1916149050919050565b611e1f8383836120ac565b600073ffffffffffffffffffffffffffffffffffffffff168373ffffffffffffffffffffffffffffffffffffffff161415611e6257611e5d816120b1565b611ea1565b8173ffffffffffffffffffffffffffffffffffffffff168373ffffffffffffffffffffffffffffffffffffffff1614611ea057611e9f83826120fa565b5b5b600073ffffffffffffffffffffffffffffffffffffffff168273ffffffffffffffffffffffffffffffffffffffff161415611ee457611edf81612267565b611f23565b8273ffffffffffffffffffffffffffffffffffffffff168273ffffffffffffffffffffffffffffffffffffffff1614611f2257611f218282612338565b5b5b505050565b6000808273ffffffffffffffffffffffffffffffffffffffff163b119050919050565b60606000821415611f93576040518060400160405280600181526020017f300000000000000000000000000000000000000000000000000000000000000081525090506120a7565b600082905060005b60008214611fc5578080611fae9061353b565b915050600a82611fbe91906132de565b9150611f9b565b60008167ffffffffffffffff811115611fe157611fe061282f565b5b6040519080825280601f01601f1916602001820160405280156120135781602001600182028036833780820191505090505b5090505b600085146120a05760018261202c919061311c565b9150600a8561203b91906132ad565b60306120479190613150565b60f81b81838151811061205d5761205c612d58565b5b60200101907effffffffffffffffffffffffffffffffffffffffffffffffffffffffffffff1916908160001a905350600a8561209991906132de565b9450612017565b8093505050505b919050565b505050565b6008805490506009600083815260200190815260200160002081905550600881908060018154018082558091505060019003906000526020600020016000909190919091505550565b6000600161210784610a78565b612111919061311c565b90506000600760008481526020019081526020016000205490508181146121f6576000600660008673ffffffffffffffffffffffffffffffffffffffff1673ffffffffffffffffffffffffffffffffffffffff168152602001908152602001600020600084815260200190815260200160002054905080600660008773ffffffffffffffffffffffffffffffffffffffff1673ffffffffffffffffffffffffffffffffffffffff168152602001908152602001600020600084815260200190815260200160002081905550816007600083815260200190815260200160002081905550505b6007600084815260200190815260200160002060009055600660008573ffffffffffffffffffffffffffffffffffffffff1673ffffffffffffffffffffffffffffffffffffffff16815260200190815260200160002060008381526020019081526020016000206000905550505050565b6000600160088054905061227b919061311c565b90506000600960008481526020019081526020016000205490506000600883815481106122ab576122aa612d58565b5b9060005260206000200154905080600883815481106122cd576122cc612d58565b5b90600052602060002001819055508160096000838152602001908152602001600020819055506009600085815260200190815260200160002060009055600880548061231c5761231b613667565b5b6001900381819060005260206000200160009055905550505050565b600061234383610a78565b905081600660008573ffffffffffffffffffffffffffffffffffffffff1673ffffffffffffffffffffffffffffffffffffffff168152602001908152602001600020600083815260200190815260200160002081905550806007600084815260200190815260200160002081905550505050565b8280546123c390612a4c565b90600052602060002090601f0160209004810192826123e5576000855561242c565b82601f106123fe57805160ff191683800117855561242c565b8280016001018555821561242c579182015b8281111561242b578251825591602001919060010190612410565b5b509050612439919061243d565b5090565b5b8082111561245657600081600090555060010161243e565b5090565b6000604051905090565b600080fd5b600080fd5b60007fffffffff0000000000000000000000000000000000000000000000000000000082169050919050565b6124a38161246e565b81146124ae57600080fd5b50565b6000813590506124c08161249a565b92915050565b6000602082840312156124dc576124db612464565b5b60006124ea848285016124b1565b91505092915050565b60008115159050919050565b612508816124f3565b82525050565b600060208201905061252360008301846124ff565b92915050565b600081519050919050565b600082825260208201905092915050565b60005b83811015612563578082015181840152602081019050612548565b83811115612572576000848401525b50505050565b6000601f19601f8301169050919050565b600061259482612529565b61259e8185612534565b93506125ae818560208601612545565b6125b781612578565b840191505092915050565b600060208201905081810360008301526125dc8184612589565b905092915050565b6000819050919050565b6125f7816125e4565b811461260257600080fd5b50565b600081359050612614816125ee565b92915050565b6000602082840312156126305761262f612464565b5b600061263e84828501612605565b91505092915050565b600073ffffffffffffffffffffffffffffffffffffffff82169050919050565b600061267282612647565b9050919050565b61268281612667565b82525050565b600060208201905061269d6000830184612679565b92915050565b6126ac81612667565b81146126b757600080fd5b50565b6000813590506126c9816126a3565b92915050565b600080604083850312156126e6576126e5612464565b5b60006126f4858286016126ba565b925050602061270585828601612605565b9150509250929050565b60006020828403121561272557612724612464565b5b6000612733848285016126ba565b91505092915050565b612745816125e4565b82525050565b6000602082019050612760600083018461273c565b92915050565b60008060006060848603121561277f5761277e612464565b5b600061278d868287016126ba565b935050602061279e868287016126ba565b92505060406127af86828701612605565b9150509250925092565b6127c2816124f3565b81146127cd57600080fd5b50565b6000813590506127df816127b9565b92915050565b600080604083850312156127fc576127fb612464565b5b600061280a858286016126ba565b925050602061281b858286016127d0565b9150509250929050565b600080fd5b600080fd5b7f4e487b7100000000000000000000000000000000000000000000000000000000600052604160045260246000fd5b61286782612578565b810181811067ffffffffffffffff821117156128865761288561282f565b5b80604052505050565b600061289961245a565b90506128a5828261285e565b919050565b600067ffffffffffffffff8211156128c5576128c461282f565b5b6128ce82612578565b9050602081019050919050565b82818337600083830152505050565b60006128fd6128f8846128aa565b61288f565b9050828152602081018484840111156129195761291861282a565b5b6129248482856128db565b509392505050565b600082601f83011261294157612940612825565b5b81356129518482602086016128ea565b91505092915050565b6000806000806080858703121561297457612973612464565b5b6000612982878288016126ba565b9450506020612993878288016126ba565b93505060406129a487828801612605565b925050606085013567ffffffffffffffff8111156129c5576129c4612469565b5b6129d18782880161292c565b91505092959194509250565b600080604083850312156129f4576129f3612464565b5b6000612a02858286016126ba565b9250506020612a13858286016126ba565b9150509250929050565b7f4e487b7100000000000000000000000000000000000000000000000000000000600052602260045260246000fd5b60006002820490506001821680612a6457607f821691505b60208210811415612a7857612a77612a1d565b5b50919050565b7f4552433732313a20617070726f76616c20746f2063757272656e74206f776e6560008201527f7200000000000000000000000000000000000000000000000000000000000000602082015250565b6000612ada602183612534565b9150612ae582612a7e565b604082019050919050565b60006020820190508181036000830152612b0981612acd565b9050919050565b7f4552433732313a20617070726f76652063616c6c6572206973206e6f7420746f60008201527f6b656e206f776e6572206e6f7220617070726f76656420666f7220616c6c0000602082015250565b6000612b6c603e83612534565b9150612b7782612b10565b604082019050919050565b60006020820190508181036000830152612b9b81612b5f565b9050919050565b7f4552433732313a2063616c6c6572206973206e6f7420746f6b656e206f776e6560008201527f72206e6f7220617070726f766564000000000000000000000000000000000000602082015250565b6000612bfe602e83612534565b9150612c0982612ba2565b604082019050919050565b60006020820190508181036000830152612c2d81612bf1565b9050919050565b7f455243373231456e756d657261626c653a206f776e657220696e646578206f7560008201527f74206f6620626f756e6473000000000000000000000000000000000000000000602082015250565b6000612c90602b83612534565b9150612c9b82612c34565b604082019050919050565b60006020820190508181036000830152612cbf81612c83565b9050919050565b7f455243373231456e756d657261626c653a20676c6f62616c20696e646578206f60008201527f7574206f6620626f756e64730000000000000000000000000000000000000000602082015250565b6000612d22602c83612534565b9150612d2d82612cc6565b604082019050919050565b60006020820190508181036000830152612d5181612d15565b9050919050565b7f4e487b7100000000000000000000000000000000000000000000000000000000600052603260045260246000fd5b7f6d696e7420746f6b656e00000000000000000000000000000000000000000000600082015250565b6000612dbd600a83612534565b9150612dc882612d87565b602082019050919050565b60006020820190508181036000830152612dec81612db0565b9050919050565b7f6765742075726c3a200000000000000000000000000000000000000000000000600082015250565b6000612e29600983612534565b9150612e3482612df3565b602082019050919050565b60006020820190508181036000830152612e5881612e1c565b9050919050565b7f7365742075726c3a200000000000000000000000000000000000000000000000600082015250565b6000612e95600983612534565b9150612ea082612e5f565b602082019050919050565b60006020820190508181036000830152612ec481612e88565b9050919050565b7f4552433732313a20696e76616c696420746f6b656e2049440000000000000000600082015250565b6000612f01601883612534565b9150612f0c82612ecb565b602082019050919050565b60006020820190508181036000830152612f3081612ef4565b9050919050565b7f4552433732313a2061646472657373207a65726f206973206e6f74206120766160008201527f6c6964206f776e65720000000000000000000000000000000000000000000000602082015250565b6000612f93602983612534565b9150612f9e82612f37565b604082019050919050565b60006020820190508181036000830152612fc281612f86565b9050919050565b7f4552433732313a207472616e736665722066726f6d20696e636f72726563742060008201527f6f776e6572000000000000000000000000000000000000000000000000000000602082015250565b6000613025602583612534565b915061303082612fc9565b604082019050919050565b6000602082019050818103600083015261305481613018565b9050919050565b7f4552433732313a207472616e7366657220746f20746865207a65726f2061646460008201527f7265737300000000000000000000000000000000000000000000000000000000602082015250565b60006130b7602483612534565b91506130c28261305b565b604082019050919050565b600060208201905081810360008301526130e6816130aa565b9050919050565b7f4e487b7100000000000000000000000000000000000000000000000000000000600052601160045260246000fd5b6000613127826125e4565b9150613132836125e4565b925082821015613145576131446130ed565b5b828203905092915050565b600061315b826125e4565b9150613166836125e4565b9250827fffffffffffffffffffffffffffffffffffffffffffffffffffffffffffffffff0382111561319b5761319a6130ed565b5b828201905092915050565b7f4552433732313a206d696e7420746f20746865207a65726f2061646472657373600082015250565b60006131dc602083612534565b91506131e7826131a6565b602082019050919050565b6000602082019050818103600083015261320b816131cf565b9050919050565b7f4552433732313a20746f6b656e20616c7265616479206d696e74656400000000600082015250565b6000613248601c83612534565b915061325382613212565b602082019050919050565b600060208201905081810360008301526132778161323b565b9050919050565b7f4e487b7100000000000000000000000000000000000000000000000000000000600052601260045260246000fd5b60006132b8826125e4565b91506132c3836125e4565b9250826132d3576132d261327e565b5b828206905092915050565b60006132e9826125e4565b91506132f4836125e4565b9250826133045761330361327e565b5b828204905092915050565b7f45524337323155524953746f726167653a2055524920736574206f66206e6f6e60008201527f6578697374656e7420746f6b656e000000000000000000000000000000000000602082015250565b600061336b602e83612534565b91506133768261330f565b604082019050919050565b6000602082019050818103600083015261339a8161335e565b9050919050565b7f4552433732313a20617070726f766520746f2063616c6c657200000000000000600082015250565b60006133d7601983612534565b91506133e2826133a1565b602082019050919050565b60006020820190508181036000830152613406816133ca565b9050919050565b7f4552433732313a207472616e7366657220746f206e6f6e20455243373231526560008201527f63656976657220696d706c656d656e7465720000000000000000000000000000602082015250565b6000613469603283612534565b91506134748261340d565b604082019050919050565b600060208201905081810360008301526134988161345c565b9050919050565b600081905092915050565b60006134b582612529565b6134bf818561349f565b93506134cf818560208601612545565b80840191505092915050565b60006134e782856134aa565b91506134f382846134aa565b91508190509392505050565b6000819050919050565b61351a613515826125e4565b6134ff565b82525050565b600061352c8284613509565b60208201915081905092915050565b6000613546826125e4565b91507fffffffffffffffffffffffffffffffffffffffffffffffffffffffffffffffff821415613579576135786130ed565b5b600182019050919050565b600081519050919050565b600082825260208201905092915050565b60006135ab82613584565b6135b5818561358f565b93506135c5818560208601612545565b6135ce81612578565b840191505092915050565b60006080820190506135ee6000830187612679565b6135fb6020830186612679565b613608604083018561273c565b818103606083015261361a81846135a0565b905095945050505050565b6000815190506136348161249a565b92915050565b6000602082840312156136505761364f612464565b5b600061365e84828501613625565b91505092915050565b7f4e487b7100000000000000000000000000000000000000000000000000000000600052603160045260246000fdfea26469706673582212202847a48bd648c1d8b97b1252de2e18c35e878781d51a1a418cf04f6a60cec1c364736f6c63430008090033",
  "linkReferences": {},
  "deployedLinkReferences": {}
}