{
  "_format": "hh-sol-artifact-1",
  "contractName": "StudentSocietyDAO",
  "sourceName": "contracts/StudentSocietyDAO.sol",
  "abi": [
    {
      "inputs": [],
      "stateMutability": "nonpayable",
      "type": "constructor"
    },
    {
      "anonymous": false,
      "inputs": [
        {
          "indexed": false,
          "internalType": "uint32",
          "name": "proposalIndex",
          "type": "uint32"
        }
      ],
      "name": "ProposalInitiated",
      "type": "event"
    },
    {
      "inputs": [],
      "name": "BONUS",
      "outputs": [
        {
          "internalType": "uint256",
          "name": "",
          "type": "uint256"
        }
      ],
      "stateMutability": "view",
      "type": "function"
    },
    {
      "inputs": [],
      "name": "LAUNCH_FEE",
      "outputs": [
        {
          "internalType": "uint256",
          "name": "",
          "type": "uint256"
        }
      ],
      "stateMutability": "view",
      "type": "function"
    },
    {
      "inputs": [],
      "name": "VOTE_FEE",
      "outputs": [
        {
          "internalType": "uint256",
          "name": "",
          "type": "uint256"
        }
      ],
      "stateMutability": "view",
      "type": "function"
    },
    {
      "inputs": [
        {
          "internalType": "uint32",
          "name": "index",
          "type": "uint32"
        }
      ],
      "name": "commit",
      "outputs": [],
      "stateMutability": "nonpayable",
      "type": "function"
    },
    {
      "inputs": [],
      "name": "getMyProposal",
      "outputs": [
        {
          "internalType": "uint32[]",
          "name": "",
          "type": "uint32[]"
        }
      ],
      "stateMutability": "view",
      "type": "function"
    },
    {
      "inputs": [
        {
          "internalType": "uint32",
          "name": "index",
          "type": "uint32"
        }
      ],
      "name": "getProposal",
      "outputs": [
        {
          "components": [
            {
              "internalType": "uint32",
              "name": "index",
              "type": "uint32"
            },
            {
              "internalType": "address",
              "name": "proposer",
              "type": "address"
            },
            {
              "internalType": "uint256",
              "name": "startTime",
              "type": "uint256"
            },
            {
              "internalType": "uint256",
              "name": "duration",
              "type": "uint256"
            },
            {
              "internalType": "string",
              "name": "name",
              "type": "string"
            },
            {
              "internalType": "string",
              "name": "discription",
              "type": "string"
            },
            {
              "internalType": "uint32",
              "name": "approveCount",
              "type": "uint32"
            },
            {
              "internalType": "uint32",
              "name": "disapproveCount",
              "type": "uint32"
            },
            {
              "internalType": "bool",
              "name": "commited",
              "type": "bool"
            }
          ],
          "internalType": "struct StudentSocietyDAO.Proposal",
          "name": "",
          "type": "tuple"
        }
      ],
      "stateMutability": "view",
      "type": "function"
    },
    {
      "inputs": [],
      "name": "getProposalCount",
      "outputs": [
        {
          "internalType": "uint32",
          "name": "",
          "type": "uint32"
        }
      ],
      "stateMutability": "view",
      "type": "function"
    },
    {
      "inputs": [],
      "name": "helloworld",
      "outputs": [
        {
          "internalType": "string",
          "name": "",
          "type": "string"
        }
      ],
      "stateMutability": "pure",
      "type": "function"
    },
    {
      "inputs": [
        {
          "internalType": "uint256",
          "name": "start",
          "type": "uint256"
        },
        {
          "internalType": "uint256",
          "name": "duration",
          "type": "uint256"
        },
        {
          "internalType": "string",
          "name": "name",
          "type": "string"
        },
        {
          "internalType": "string",
          "name": "detail",
          "type": "string"
        }
      ],
      "name": "launch",
      "outputs": [],
      "stateMutability": "nonpayable",
      "type": "function"
    },
    {
      "inputs": [],
      "name": "studentERC20",
      "outputs": [
        {
          "internalType": "contract MyERC20",
          "name": "",
          "type": "address"
        }
      ],
      "stateMutability": "view",
      "type": "function"
    },
    {
      "inputs": [
        {
          "internalType": "uint32",
          "name": "index",
          "type": "uint32"
        },
        {
          "internalType": "bool",
          "name": "approve",
          "type": "bool"
        }
      ],
      "name": "vote",
      "outputs": [],
      "stateMutability": "nonpayable",
      "type": "function"
    }
  ],
  "bytecode": "0x60806040523480156200001157600080fd5b506040516200002090620000b0565b6200002b906200016f565b604051809103906000f08015801562000048573d6000803e3d6000fd5b506000806101000a81548173ffffffffffffffffffffffffffffffffffffffff021916908373ffffffffffffffffffffffffffffffffffffffff1602179055506000600460006101000a81548163ffffffff021916908363ffffffff160217905550620001a6565b611ad38062001b1c83390190565b600082825260208201905092915050565b7f6e616d6500000000000000000000000000000000000000000000000000000000600082015250565b600062000107600483620000be565b91506200011482620000cf565b602082019050919050565b7f73796d626f6c0000000000000000000000000000000000000000000000000000600082015250565b600062000157600683620000be565b915062000164826200011f565b602082019050919050565b600060408201905081810360008301526200018a81620000f8565b905081810360208301526200019f8162000148565b9050919050565b61196680620001b66000396000f3fe608060405234801561001057600080fd5b50600436106100a95760003560e01c80636c3fbb2d116100715780636c3fbb2d1461015457806377cfd551146101725780637ef4aa7b1461018e578063a856f359146101ac578063c08cc02d146101c8578063dd6c3698146101e6576100a9565b806309197a81146100ae578063114f00ab146100cc5780632f2f4859146100fc578063441d85e61461011a5780634b8624c414610136575b600080fd5b6100b6610204565b6040516100c39190611044565b60405180910390f35b6100e660048036038101906100e191906110a5565b61020a565b6040516100f391906112b1565b60405180910390f35b61010461045f565b604051610111919061131d565b60405180910390f35b610134600480360381019061012f91906113d0565b61049c565b005b61013e6108a0565b60405161014b9190611044565b60405180910390f35b61015c6108a6565b60405161016991906114d6565b60405180910390f35b61018c6004803603810190610187919061151d565b6108ca565b005b610196610c49565b6040516101a39190611044565b60405180910390f35b6101c660048036038101906101c191906110a5565b610c4f565b005b6101d0610e37565b6040516101dd919061156c565b60405180910390f35b6101ee610e51565b6040516101fb9190611636565b60405180910390f35b6107d081565b610212610f12565b600160008363ffffffff1663ffffffff168152602001908152602001600020604051806101200160405290816000820160009054906101000a900463ffffffff1663ffffffff1663ffffffff1681526020016000820160049054906101000a900473ffffffffffffffffffffffffffffffffffffffff1673ffffffffffffffffffffffffffffffffffffffff1673ffffffffffffffffffffffffffffffffffffffff16815260200160018201548152602001600282015481526020016003820180546102dd90611687565b80601f016020809104026020016040519081016040528092919081815260200182805461030990611687565b80156103565780601f1061032b57610100808354040283529160200191610356565b820191906000526020600020905b81548152906001019060200180831161033957829003601f168201915b5050505050815260200160048201805461036f90611687565b80601f016020809104026020016040519081016040528092919081815260200182805461039b90611687565b80156103e85780601f106103bd576101008083540402835291602001916103e8565b820191906000526020600020905b8154815290600101906020018083116103cb57829003601f168201915b505050505081526020016005820160009054906101000a900463ffffffff1663ffffffff1663ffffffff1681526020016005820160049054906101000a900463ffffffff1663ffffffff1663ffffffff1681526020016005820160089054906101000a900460ff1615151515815250509050919050565b60606040518060400160405280600b81526020017f68656c6c6f20776f726c64000000000000000000000000000000000000000000815250905090565b60008054906101000a900473ffffffffffffffffffffffffffffffffffffffff1673ffffffffffffffffffffffffffffffffffffffff166323b872dd33306107d06040518463ffffffff1660e01b81526004016104fb939291906116c8565b602060405180830381600087803b15801561051557600080fd5b505af1158015610529573d6000803e3d6000fd5b505050506040513d601f19601f8201168201806040525081019061054d9190611714565b506000604051806101200160405280600460009054906101000a900463ffffffff1663ffffffff1681526020013373ffffffffffffffffffffffffffffffffffffffff16815260200188815260200187815260200186868080601f016020809104026020016040519081016040528093929190818152602001838380828437600081840152601f19601f82011690508083019250505050505050815260200184848080601f016020809104026020016040519081016040528093929190818152602001838380828437600081840152601f19601f820116905080830192505050505050508152602001600063ffffffff168152602001600063ffffffff1681526020016000151581525090508060016000600460009054906101000a900463ffffffff1663ffffffff1663ffffffff16815260200190815260200160002060008201518160000160006101000a81548163ffffffff021916908363ffffffff16021790555060208201518160000160046101000a81548173ffffffffffffffffffffffffffffffffffffffff021916908373ffffffffffffffffffffffffffffffffffffffff16021790555060408201518160010155606082015181600201556080820151816003019080519060200190610729929190610f88565b5060a0820151816004019080519060200190610746929190610f88565b5060c08201518160050160006101000a81548163ffffffff021916908363ffffffff16021790555060e08201518160050160046101000a81548163ffffffff021916908363ffffffff1602179055506101008201518160050160086101000a81548160ff021916908315150217905550905050600360003373ffffffffffffffffffffffffffffffffffffffff1673ffffffffffffffffffffffffffffffffffffffff168152602001908152602001600020600460009054906101000a900463ffffffff1690806001815401808255809150506001900390600052602060002090600891828204019190066004029091909190916101000a81548163ffffffff021916908363ffffffff1602179055506004600081819054906101000a900463ffffffff168092919061087890611770565b91906101000a81548163ffffffff021916908363ffffffff1602179055505050505050505050565b6109c481565b60008054906101000a900473ffffffffffffffffffffffffffffffffffffffff1681565b600460009054906101000a900463ffffffff1663ffffffff168263ffffffff161061092a576040517f08c379a0000000000000000000000000000000000000000000000000000000008152600401610921906117e9565b60405180910390fd5b60001515600260008463ffffffff1663ffffffff16815260200190815260200160002060003373ffffffffffffffffffffffffffffffffffffffff1673ffffffffffffffffffffffffffffffffffffffff16815260200190815260200160002060009054906101000a900460ff161515146109da576040517f08c379a00000000000000000000000000000000000000000000000000000000081526004016109d190611855565b60405180910390fd5b60001515600160008463ffffffff1663ffffffff16815260200190815260200160002060050160089054906101000a900460ff16151514610a50576040517f08c379a0000000000000000000000000000000000000000000000000000000008152600401610a47906118e7565b60405180910390fd5b8015610abc57600160008363ffffffff1663ffffffff168152602001908152602001600020600501600081819054906101000a900463ffffffff1680929190610a9890611770565b91906101000a81548163ffffffff021916908363ffffffff16021790555050610b1e565b600160008363ffffffff1663ffffffff168152602001908152602001600020600501600481819054906101000a900463ffffffff1680929190610afe90611770565b91906101000a81548163ffffffff021916908363ffffffff160217905550505b60008054906101000a900473ffffffffffffffffffffffffffffffffffffffff1673ffffffffffffffffffffffffffffffffffffffff166323b872dd33306101f46040518463ffffffff1660e01b8152600401610b7d939291906116c8565b602060405180830381600087803b158015610b9757600080fd5b505af1158015610bab573d6000803e3d6000fd5b505050506040513d601f19601f82011682018060405250810190610bcf9190611714565b506001600260008463ffffffff1663ffffffff16815260200190815260200160002060003373ffffffffffffffffffffffffffffffffffffffff1673ffffffffffffffffffffffffffffffffffffffff16815260200190815260200160002060006101000a81548160ff0219169083151502179055505050565b6101f481565b60001515600160008363ffffffff1663ffffffff16815260200190815260200160002060050160089054906101000a900460ff16151514610c8f57600080fd5b60018060008363ffffffff1663ffffffff16815260200190815260200160002060050160086101000a81548160ff021916908315150217905550600160008263ffffffff1663ffffffff16815260200190815260200160002060050160049054906101000a900463ffffffff1663ffffffff16600160008363ffffffff1663ffffffff16815260200190815260200160002060050160009054906101000a900463ffffffff1663ffffffff161115610e345760008054906101000a900473ffffffffffffffffffffffffffffffffffffffff1673ffffffffffffffffffffffffffffffffffffffff1663a9059cbb600160008463ffffffff1663ffffffff16815260200190815260200160002060000160049054906101000a900473ffffffffffffffffffffffffffffffffffffffff166109c46040518363ffffffff1660e01b8152600401610de0929190611907565b602060405180830381600087803b158015610dfa57600080fd5b505af1158015610e0e573d6000803e3d6000fd5b505050506040513d601f19601f82011682018060405250810190610e329190611714565b505b50565b6000600460009054906101000a900463ffffffff16905090565b6060600360003373ffffffffffffffffffffffffffffffffffffffff1673ffffffffffffffffffffffffffffffffffffffff168152602001908152602001600020805480602002602001604051908101604052809291908181526020018280548015610f0857602002820191906000526020600020906000905b82829054906101000a900463ffffffff1663ffffffff1681526020019060040190602082600301049283019260010382029150808411610ecb5790505b5050505050905090565b604051806101200160405280600063ffffffff168152602001600073ffffffffffffffffffffffffffffffffffffffff16815260200160008152602001600081526020016060815260200160608152602001600063ffffffff168152602001600063ffffffff1681526020016000151581525090565b828054610f9490611687565b90600052602060002090601f016020900481019282610fb65760008555610ffd565b82601f10610fcf57805160ff1916838001178555610ffd565b82800160010185558215610ffd579182015b82811115610ffc578251825591602001919060010190610fe1565b5b50905061100a919061100e565b5090565b5b8082111561102757600081600090555060010161100f565b5090565b6000819050919050565b61103e8161102b565b82525050565b60006020820190506110596000830184611035565b92915050565b600080fd5b600080fd5b600063ffffffff82169050919050565b61108281611069565b811461108d57600080fd5b50565b60008135905061109f81611079565b92915050565b6000602082840312156110bb576110ba61105f565b5b60006110c984828501611090565b91505092915050565b6110db81611069565b82525050565b600073ffffffffffffffffffffffffffffffffffffffff82169050919050565b600061110c826110e1565b9050919050565b61111c81611101565b82525050565b61112b8161102b565b82525050565b600081519050919050565b600082825260208201905092915050565b60005b8381101561116b578082015181840152602081019050611150565b8381111561117a576000848401525b50505050565b6000601f19601f8301169050919050565b600061119c82611131565b6111a6818561113c565b93506111b681856020860161114d565b6111bf81611180565b840191505092915050565b60008115159050919050565b6111df816111ca565b82525050565b6000610120830160008301516111fe60008601826110d2565b5060208301516112116020860182611113565b5060408301516112246040860182611122565b5060608301516112376060860182611122565b506080830151848203608086015261124f8282611191565b91505060a083015184820360a08601526112698282611191565b91505060c083015161127e60c08601826110d2565b5060e083015161129160e08601826110d2565b506101008301516112a66101008601826111d6565b508091505092915050565b600060208201905081810360008301526112cb81846111e5565b905092915050565b600082825260208201905092915050565b60006112ef82611131565b6112f981856112d3565b935061130981856020860161114d565b61131281611180565b840191505092915050565b6000602082019050818103600083015261133781846112e4565b905092915050565b6113488161102b565b811461135357600080fd5b50565b6000813590506113658161133f565b92915050565b600080fd5b600080fd5b600080fd5b60008083601f8401126113905761138f61136b565b5b8235905067ffffffffffffffff8111156113ad576113ac611370565b5b6020830191508360018202830111156113c9576113c8611375565b5b9250929050565b600080600080600080608087890312156113ed576113ec61105f565b5b60006113fb89828a01611356565b965050602061140c89828a01611356565b955050604087013567ffffffffffffffff81111561142d5761142c611064565b5b61143989828a0161137a565b9450945050606087013567ffffffffffffffff81111561145c5761145b611064565b5b61146889828a0161137a565b92509250509295509295509295565b6000819050919050565b600061149c611497611492846110e1565b611477565b6110e1565b9050919050565b60006114ae82611481565b9050919050565b60006114c0826114a3565b9050919050565b6114d0816114b5565b82525050565b60006020820190506114eb60008301846114c7565b92915050565b6114fa816111ca565b811461150557600080fd5b50565b600081359050611517816114f1565b92915050565b600080604083850312156115345761153361105f565b5b600061154285828601611090565b925050602061155385828601611508565b9150509250929050565b61156681611069565b82525050565b6000602082019050611581600083018461155d565b92915050565b600081519050919050565b600082825260208201905092915050565b6000819050602082019050919050565b60006115bf83836110d2565b60208301905092915050565b6000602082019050919050565b60006115e382611587565b6115ed8185611592565b93506115f8836115a3565b8060005b8381101561162957815161161088826115b3565b975061161b836115cb565b9250506001810190506115fc565b5085935050505092915050565b6000602082019050818103600083015261165081846115d8565b905092915050565b7f4e487b7100000000000000000000000000000000000000000000000000000000600052602260045260246000fd5b6000600282049050600182168061169f57607f821691505b602082108114156116b3576116b2611658565b5b50919050565b6116c281611101565b82525050565b60006060820190506116dd60008301866116b9565b6116ea60208301856116b9565b6116f76040830184611035565b949350505050565b60008151905061170e816114f1565b92915050565b60006020828403121561172a5761172961105f565b5b6000611738848285016116ff565b91505092915050565b7f4e487b7100000000000000000000000000000000000000000000000000000000600052601160045260246000fd5b600061177b82611069565b915063ffffffff82141561179257611791611741565b5b600182019050919050565b7f546869732070726f706f73616c20646f6573206e6f742065786973742e000000600082015250565b60006117d3601d836112d3565b91506117de8261179d565b602082019050919050565b60006020820190508181036000830152611802816117c6565b9050919050565b7f596f752063616e206f6e6c7920766f7465206f6e63652e000000000000000000600082015250565b600061183f6017836112d3565b915061184a82611809565b602082019050919050565b6000602082019050818103600083015261186e81611832565b9050919050565b7f54686520766f74696e6720666f7220746869732070726f706f73616c2068617360008201527f20656e6465642e00000000000000000000000000000000000000000000000000602082015250565b60006118d16027836112d3565b91506118dc82611875565b604082019050919050565b60006020820190508181036000830152611900816118c4565b9050919050565b600060408201905061191c60008301856116b9565b6119296020830184611035565b939250505056fea2646970667358221220bd8fb3f7a272d69b203fdb593f8d207357481ad000d117260695ae3929ba1ac364736f6c6343000809003360806040523480156200001157600080fd5b5060405162001ad338038062001ad38339818101604052810190620000379190620002c2565b818181600390805190602001906200005192919062000075565b5080600490805190602001906200006a92919062000075565b5050505050620003ac565b828054620000839062000376565b90600052602060002090601f016020900481019282620000a75760008555620000f3565b82601f10620000c257805160ff1916838001178555620000f3565b82800160010185558215620000f3579182015b82811115620000f2578251825591602001919060010190620000d5565b5b50905062000102919062000106565b5090565b5b808211156200012157600081600090555060010162000107565b5090565b6000604051905090565b600080fd5b600080fd5b600080fd5b600080fd5b6000601f19601f8301169050919050565b7f4e487b7100000000000000000000000000000000000000000000000000000000600052604160045260246000fd5b6200018e8262000143565b810181811067ffffffffffffffff82111715620001b057620001af62000154565b5b80604052505050565b6000620001c562000125565b9050620001d3828262000183565b919050565b600067ffffffffffffffff821115620001f657620001f562000154565b5b620002018262000143565b9050602081019050919050565b60005b838110156200022e57808201518184015260208101905062000211565b838111156200023e576000848401525b50505050565b60006200025b6200025584620001d8565b620001b9565b9050828152602081018484840111156200027a57620002796200013e565b5b620002878482856200020e565b509392505050565b600082601f830112620002a757620002a662000139565b5b8151620002b984826020860162000244565b91505092915050565b60008060408385031215620002dc57620002db6200012f565b5b600083015167ffffffffffffffff811115620002fd57620002fc62000134565b5b6200030b858286016200028f565b925050602083015167ffffffffffffffff8111156200032f576200032e62000134565b5b6200033d858286016200028f565b9150509250929050565b7f4e487b7100000000000000000000000000000000000000000000000000000000600052602260045260246000fd5b600060028204905060018216806200038f57607f821691505b60208210811415620003a657620003a562000347565b5b50919050565b61171780620003bc6000396000f3fe608060405234801561001057600080fd5b50600436106100b45760003560e01c80633950935111610071578063395093511461017d57806370a08231146101ad57806395d89b41146101dd578063a457c2d7146101fb578063a9059cbb1461022b578063dd62ed3e1461025b576100b4565b806306fdde03146100b9578063095ea7b3146100d757806318160ddd1461010757806323b872dd14610125578063313ce567146101555780633884d63514610173575b600080fd5b6100c161028b565b6040516100ce9190610e94565b60405180910390f35b6100f160048036038101906100ec9190610f4f565b61031d565b6040516100fe9190610faa565b60405180910390f35b61010f610340565b60405161011c9190610fd4565b60405180910390f35b61013f600480360381019061013a9190610fef565b61034a565b60405161014c9190610faa565b60405180910390f35b61015d610379565b60405161016a919061105e565b60405180910390f35b61017b610382565b005b61019760048036038101906101929190610f4f565b6104ba565b6040516101a49190610faa565b60405180910390f35b6101c760048036038101906101c29190611079565b6104f1565b6040516101d49190610fd4565b60405180910390f35b6101e5610539565b6040516101f29190610e94565b60405180910390f35b61021560048036038101906102109190610f4f565b6105cb565b6040516102229190610faa565b60405180910390f35b61024560048036038101906102409190610f4f565b610642565b6040516102529190610faa565b60405180910390f35b610275600480360381019061027091906110a6565b610665565b6040516102829190610fd4565b60405180910390f35b60606003805461029a90611115565b80601f01602080910402602001604051908101604052809291908181526020018280546102c690611115565b80156103135780601f106102e857610100808354040283529160200191610313565b820191906000526020600020905b8154815290600101906020018083116102f657829003601f168201915b5050505050905090565b6000806103286106ec565b90506103358185856106f4565b600191505092915050565b6000600254905090565b6000806103556106ec565b90506103628582856108bf565b61036d85858561094b565b60019150509392505050565b60006012905090565b6103c16040518060400160405280601881526020017f257320747279696e6720746f206765742061697264726f70000000000000000081525033610bcc565b60001515600560003373ffffffffffffffffffffffffffffffffffffffff1673ffffffffffffffffffffffffffffffffffffffff16815260200190815260200160002060009054906101000a900460ff16151514610454576040517f08c379a000000000000000000000000000000000000000000000000000000000815260040161044b906111b9565b60405180910390fd5b61046033612710610c68565b6001600560003373ffffffffffffffffffffffffffffffffffffffff1673ffffffffffffffffffffffffffffffffffffffff16815260200190815260200160002060006101000a81548160ff021916908315150217905550565b6000806104c56106ec565b90506104e68185856104d78589610665565b6104e19190611208565b6106f4565b600191505092915050565b60008060008373ffffffffffffffffffffffffffffffffffffffff1673ffffffffffffffffffffffffffffffffffffffff168152602001908152602001600020549050919050565b60606004805461054890611115565b80601f016020809104026020016040519081016040528092919081815260200182805461057490611115565b80156105c15780601f10610596576101008083540402835291602001916105c1565b820191906000526020600020905b8154815290600101906020018083116105a457829003601f168201915b5050505050905090565b6000806105d66106ec565b905060006105e48286610665565b905083811015610629576040517f08c379a0000000000000000000000000000000000000000000000000000000008152600401610620906112d0565b60405180910390fd5b61063682868684036106f4565b60019250505092915050565b60008061064d6106ec565b905061065a81858561094b565b600191505092915050565b6000600160008473ffffffffffffffffffffffffffffffffffffffff1673ffffffffffffffffffffffffffffffffffffffff16815260200190815260200160002060008373ffffffffffffffffffffffffffffffffffffffff1673ffffffffffffffffffffffffffffffffffffffff16815260200190815260200160002054905092915050565b600033905090565b600073ffffffffffffffffffffffffffffffffffffffff168373ffffffffffffffffffffffffffffffffffffffff161415610764576040517f08c379a000000000000000000000000000000000000000000000000000000000815260040161075b90611362565b60405180910390fd5b600073ffffffffffffffffffffffffffffffffffffffff168273ffffffffffffffffffffffffffffffffffffffff1614156107d4576040517f08c379a00000000000000000000000000000000000000000000000000000000081526004016107cb906113f4565b60405180910390fd5b80600160008573ffffffffffffffffffffffffffffffffffffffff1673ffffffffffffffffffffffffffffffffffffffff16815260200190815260200160002060008473ffffffffffffffffffffffffffffffffffffffff1673ffffffffffffffffffffffffffffffffffffffff168152602001908152602001600020819055508173ffffffffffffffffffffffffffffffffffffffff168373ffffffffffffffffffffffffffffffffffffffff167f8c5be1e5ebec7d5bd14f71427d1e84f3dd0314c0f7b2291e5b200ac8c7c3b925836040516108b29190610fd4565b60405180910390a3505050565b60006108cb8484610665565b90507fffffffffffffffffffffffffffffffffffffffffffffffffffffffffffffffff81146109455781811015610937576040517f08c379a000000000000000000000000000000000000000000000000000000000815260040161092e90611460565b60405180910390fd5b61094484848484036106f4565b5b50505050565b600073ffffffffffffffffffffffffffffffffffffffff168373ffffffffffffffffffffffffffffffffffffffff1614156109bb576040517f08c379a00000000000000000000000000000000000000000000000000000000081526004016109b2906114f2565b60405180910390fd5b600073ffffffffffffffffffffffffffffffffffffffff168273ffffffffffffffffffffffffffffffffffffffff161415610a2b576040517f08c379a0000000000000000000000000000000000000000000000000000000008152600401610a2290611584565b60405180910390fd5b610a36838383610dc8565b60008060008573ffffffffffffffffffffffffffffffffffffffff1673ffffffffffffffffffffffffffffffffffffffff16815260200190815260200160002054905081811015610abc576040517f08c379a0000000000000000000000000000000000000000000000000000000008152600401610ab390611616565b60405180910390fd5b8181036000808673ffffffffffffffffffffffffffffffffffffffff1673ffffffffffffffffffffffffffffffffffffffff16815260200190815260200160002081905550816000808573ffffffffffffffffffffffffffffffffffffffff1673ffffffffffffffffffffffffffffffffffffffff1681526020019081526020016000206000828254610b4f9190611208565b925050819055508273ffffffffffffffffffffffffffffffffffffffff168473ffffffffffffffffffffffffffffffffffffffff167fddf252ad1be2c89b69c2b068fc378daa952ba7f163c4a11628f55a4df523b3ef84604051610bb39190610fd4565b60405180910390a3610bc6848484610dcd565b50505050565b610c648282604051602401610be2929190611645565b6040516020818303038152906040527f319af333000000000000000000000000000000000000000000000000000000007bffffffffffffffffffffffffffffffffffffffffffffffffffffffff19166020820180517bffffffffffffffffffffffffffffffffffffffffffffffffffffffff8381831617835250505050610dd2565b5050565b600073ffffffffffffffffffffffffffffffffffffffff168273ffffffffffffffffffffffffffffffffffffffff161415610cd8576040517f08c379a0000000000000000000000000000000000000000000000000000000008152600401610ccf906116c1565b60405180910390fd5b610ce460008383610dc8565b8060026000828254610cf69190611208565b92505081905550806000808473ffffffffffffffffffffffffffffffffffffffff1673ffffffffffffffffffffffffffffffffffffffff1681526020019081526020016000206000828254610d4b9190611208565b925050819055508173ffffffffffffffffffffffffffffffffffffffff16600073ffffffffffffffffffffffffffffffffffffffff167fddf252ad1be2c89b69c2b068fc378daa952ba7f163c4a11628f55a4df523b3ef83604051610db09190610fd4565b60405180910390a3610dc460008383610dcd565b5050565b505050565b505050565b60008151905060006a636f6e736f6c652e6c6f679050602083016000808483855afa5050505050565b600081519050919050565b600082825260208201905092915050565b60005b83811015610e35578082015181840152602081019050610e1a565b83811115610e44576000848401525b50505050565b6000601f19601f8301169050919050565b6000610e6682610dfb565b610e708185610e06565b9350610e80818560208601610e17565b610e8981610e4a565b840191505092915050565b60006020820190508181036000830152610eae8184610e5b565b905092915050565b600080fd5b600073ffffffffffffffffffffffffffffffffffffffff82169050919050565b6000610ee682610ebb565b9050919050565b610ef681610edb565b8114610f0157600080fd5b50565b600081359050610f1381610eed565b92915050565b6000819050919050565b610f2c81610f19565b8114610f3757600080fd5b50565b600081359050610f4981610f23565b92915050565b60008060408385031215610f6657610f65610eb6565b5b6000610f7485828601610f04565b9250506020610f8585828601610f3a565b9150509250929050565b60008115159050919050565b610fa481610f8f565b82525050565b6000602082019050610fbf6000830184610f9b565b92915050565b610fce81610f19565b82525050565b6000602082019050610fe96000830184610fc5565b92915050565b60008060006060848603121561100857611007610eb6565b5b600061101686828701610f04565b935050602061102786828701610f04565b925050604061103886828701610f3a565b9150509250925092565b600060ff82169050919050565b61105881611042565b82525050565b6000602082019050611073600083018461104f565b92915050565b60006020828403121561108f5761108e610eb6565b5b600061109d84828501610f04565b91505092915050565b600080604083850312156110bd576110bc610eb6565b5b60006110cb85828601610f04565b92505060206110dc85828601610f04565b9150509250929050565b7f4e487b7100000000000000000000000000000000000000000000000000000000600052602260045260246000fd5b6000600282049050600182168061112d57607f821691505b60208210811415611141576111406110e6565b5b50919050565b7f5468697320757365722068617320636c61696d65642061697264726f7020616c60008201527f7265616479000000000000000000000000000000000000000000000000000000602082015250565b60006111a3602583610e06565b91506111ae82611147565b604082019050919050565b600060208201905081810360008301526111d281611196565b9050919050565b7f4e487b7100000000000000000000000000000000000000000000000000000000600052601160045260246000fd5b600061121382610f19565b915061121e83610f19565b9250827fffffffffffffffffffffffffffffffffffffffffffffffffffffffffffffffff03821115611253576112526111d9565b5b828201905092915050565b7f45524332303a2064656372656173656420616c6c6f77616e63652062656c6f7760008201527f207a65726f000000000000000000000000000000000000000000000000000000602082015250565b60006112ba602583610e06565b91506112c58261125e565b604082019050919050565b600060208201905081810360008301526112e9816112ad565b9050919050565b7f45524332303a20617070726f76652066726f6d20746865207a65726f2061646460008201527f7265737300000000000000000000000000000000000000000000000000000000602082015250565b600061134c602483610e06565b9150611357826112f0565b604082019050919050565b6000602082019050818103600083015261137b8161133f565b9050919050565b7f45524332303a20617070726f766520746f20746865207a65726f20616464726560008201527f7373000000000000000000000000000000000000000000000000000000000000602082015250565b60006113de602283610e06565b91506113e982611382565b604082019050919050565b6000602082019050818103600083015261140d816113d1565b9050919050565b7f45524332303a20696e73756666696369656e7420616c6c6f77616e6365000000600082015250565b600061144a601d83610e06565b915061145582611414565b602082019050919050565b600060208201905081810360008301526114798161143d565b9050919050565b7f45524332303a207472616e736665722066726f6d20746865207a65726f20616460008201527f6472657373000000000000000000000000000000000000000000000000000000602082015250565b60006114dc602583610e06565b91506114e782611480565b604082019050919050565b6000602082019050818103600083015261150b816114cf565b9050919050565b7f45524332303a207472616e7366657220746f20746865207a65726f206164647260008201527f6573730000000000000000000000000000000000000000000000000000000000602082015250565b600061156e602383610e06565b915061157982611512565b604082019050919050565b6000602082019050818103600083015261159d81611561565b9050919050565b7f45524332303a207472616e7366657220616d6f756e742065786365656473206260008201527f616c616e63650000000000000000000000000000000000000000000000000000602082015250565b6000611600602683610e06565b915061160b826115a4565b604082019050919050565b6000602082019050818103600083015261162f816115f3565b9050919050565b61163f81610edb565b82525050565b6000604082019050818103600083015261165f8185610e5b565b905061166e6020830184611636565b9392505050565b7f45524332303a206d696e7420746f20746865207a65726f206164647265737300600082015250565b60006116ab601f83610e06565b91506116b682611675565b602082019050919050565b600060208201905081810360008301526116da8161169e565b905091905056fea264697066735822122040ad538b8b7a9370c1a5492e6a96cb5d9b6c615b458c0d68d6d3228491047d6a64736f6c63430008090033",
  "linkReferences": {},
  "deployedLinkReferences": {}
}