{
  "_format": "hh-sol-artifact-1",
  "contractName": "StudentSocietyDAO",
  "sourceName": "contracts/StudentSocietyDAO.sol",
  "abi": [
    {
      "inputs": [],
      "stateMutability": "nonpayable",
      "type": "constructor"
    },
    {
      "anonymous": false,
      "inputs": [
        {
          "indexed": false,
          "internalType": "uint32",
          "name": "proposalIndex",
          "type": "uint32"
        }
      ],
      "name": "ProposalInitiated",
      "type": "event"
    },
    {
      "inputs": [],
      "name": "BONUS",
      "outputs": [
        {
          "internalType": "uint256",
          "name": "",
          "type": "uint256"
        }
      ],
      "stateMutability": "view",
      "type": "function"
    },
    {
      "inputs": [],
      "name": "LAUNCH_FEE",
      "outputs": [
        {
          "internalType": "uint256",
          "name": "",
          "type": "uint256"
        }
      ],
      "stateMutability": "view",
      "type": "function"
    },
    {
      "inputs": [],
      "name": "VOTE_FEE",
      "outputs": [
        {
          "internalType": "uint256",
          "name": "",
          "type": "uint256"
        }
      ],
      "stateMutability": "view",
      "type": "function"
    },
    {
      "inputs": [
        {
          "internalType": "uint32",
          "name": "index",
          "type": "uint32"
        }
      ],
      "name": "commit",
      "outputs": [],
      "stateMutability": "nonpayable",
      "type": "function"
    },
    {
      "inputs": [],
      "name": "getMyProposal",
      "outputs": [
        {
          "internalType": "uint32[]",
          "name": "",
          "type": "uint32[]"
        }
      ],
      "stateMutability": "view",
      "type": "function"
    },
    {
      "inputs": [
        {
          "internalType": "uint32",
          "name": "index",
          "type": "uint32"
        }
      ],
      "name": "getProposal",
      "outputs": [
        {
          "components": [
            {
              "internalType": "uint32",
              "name": "index",
              "type": "uint32"
            },
            {
              "internalType": "address",
              "name": "proposer",
              "type": "address"
            },
            {
              "internalType": "uint256",
              "name": "startTime",
              "type": "uint256"
            },
            {
              "internalType": "uint256",
              "name": "duration",
              "type": "uint256"
            },
            {
              "internalType": "string",
              "name": "name",
              "type": "string"
            },
            {
              "internalType": "string",
              "name": "discription",
              "type": "string"
            },
            {
              "internalType": "uint32",
              "name": "approveCount",
              "type": "uint32"
            },
            {
              "internalType": "uint32",
              "name": "disapproveCount",
              "type": "uint32"
            },
            {
              "internalType": "bool",
              "name": "commited",
              "type": "bool"
            }
          ],
          "internalType": "struct StudentSocietyDAO.Proposal",
          "name": "",
          "type": "tuple"
        }
      ],
      "stateMutability": "view",
      "type": "function"
    },
    {
      "inputs": [],
      "name": "getProposalCount",
      "outputs": [
        {
          "internalType": "uint32",
          "name": "",
          "type": "uint32"
        }
      ],
      "stateMutability": "view",
      "type": "function"
    },
    {
      "inputs": [],
      "name": "helloworld",
      "outputs": [
        {
          "internalType": "string",
          "name": "",
          "type": "string"
        }
      ],
      "stateMutability": "pure",
      "type": "function"
    },
    {
      "inputs": [
        {
          "internalType": "uint256",
          "name": "start",
          "type": "uint256"
        },
        {
          "internalType": "uint256",
          "name": "duration",
          "type": "uint256"
        },
        {
          "internalType": "string",
          "name": "name",
          "type": "string"
        },
        {
          "internalType": "string",
          "name": "detail",
          "type": "string"
        }
      ],
      "name": "launch",
      "outputs": [],
      "stateMutability": "nonpayable",
      "type": "function"
    },
    {
      "inputs": [],
      "name": "studentERC20",
      "outputs": [
        {
          "internalType": "contract MyERC20",
          "name": "",
          "type": "address"
        }
      ],
      "stateMutability": "view",
      "type": "function"
    },
    {
      "inputs": [],
      "name": "studentERC721",
      "outputs": [
        {
          "internalType": "contract MyERC721",
          "name": "",
          "type": "address"
        }
      ],
      "stateMutability": "view",
      "type": "function"
    },
    {
      "inputs": [
        {
          "internalType": "uint32",
          "name": "index",
          "type": "uint32"
        },
        {
          "internalType": "bool",
          "name": "approve",
          "type": "bool"
        }
      ],
      "name": "vote",
      "outputs": [],
      "stateMutability": "nonpayable",
      "type": "function"
    }
  ],
  "bytecode": "0x60806040523480156200001157600080fd5b5060405162000020906200011c565b6200002b90620001e9565b604051809103906000f08015801562000048573d6000803e3d6000fd5b506000806101000a81548173ffffffffffffffffffffffffffffffffffffffff021916908373ffffffffffffffffffffffffffffffffffffffff16021790555060405162000096906200012a565b604051809103906000f080158015620000b3573d6000803e3d6000fd5b50600160006101000a81548173ffffffffffffffffffffffffffffffffffffffff021916908373ffffffffffffffffffffffffffffffffffffffff1602179055506000600660006101000a81548163ffffffff021916908363ffffffff16021790555062000220565b611ad38062001e1083390190565b6138a980620038e383390190565b600082825260208201905092915050565b7f6e616d6500000000000000000000000000000000000000000000000000000000600082015250565b60006200018160048362000138565b91506200018e8262000149565b602082019050919050565b7f73796d626f6c0000000000000000000000000000000000000000000000000000600082015250565b6000620001d160068362000138565b9150620001de8262000199565b602082019050919050565b60006040820190508181036000830152620002048162000172565b905081810360208301526200021981620001c2565b9050919050565b611be080620002306000396000f3fe608060405234801561001057600080fd5b50600436106100b45760003560e01c80636c3fbb2d116100715780636c3fbb2d1461017d57806377cfd5511461019b5780637ef4aa7b146101b7578063a856f359146101d5578063c08cc02d146101f1578063dd6c36981461020f576100b4565b806309197a81146100b9578063114f00ab146100d75780632f2f4859146101075780633901d2d414610125578063441d85e6146101435780634b8624c41461015f575b600080fd5b6100c161022d565b6040516100ce9190611225565b60405180910390f35b6100f160048036038101906100ec9190611286565b610233565b6040516100fe9190611492565b60405180910390f35b61010f610488565b60405161011c91906114fe565b60405180910390f35b61012d6104c5565b60405161013a919061157f565b60405180910390f35b61015d6004803603810190610158919061162b565b6104eb565b005b6101676108ef565b6040516101749190611225565b60405180910390f35b6101856108f5565b60405161019291906116f3565b60405180910390f35b6101b560048036038101906101b0919061173a565b610919565b005b6101bf610c98565b6040516101cc9190611225565b60405180910390f35b6101ef60048036038101906101ea9190611286565b610c9e565b005b6101f9611018565b6040516102069190611789565b60405180910390f35b610217611032565b6040516102249190611853565b60405180910390f35b6107d081565b61023b6110f3565b600260008363ffffffff1663ffffffff168152602001908152602001600020604051806101200160405290816000820160009054906101000a900463ffffffff1663ffffffff1663ffffffff1681526020016000820160049054906101000a900473ffffffffffffffffffffffffffffffffffffffff1673ffffffffffffffffffffffffffffffffffffffff1673ffffffffffffffffffffffffffffffffffffffff1681526020016001820154815260200160028201548152602001600382018054610306906118a4565b80601f0160208091040260200160405190810160405280929190818152602001828054610332906118a4565b801561037f5780601f106103545761010080835404028352916020019161037f565b820191906000526020600020905b81548152906001019060200180831161036257829003601f168201915b50505050508152602001600482018054610398906118a4565b80601f01602080910402602001604051908101604052809291908181526020018280546103c4906118a4565b80156104115780601f106103e657610100808354040283529160200191610411565b820191906000526020600020905b8154815290600101906020018083116103f457829003601f168201915b505050505081526020016005820160009054906101000a900463ffffffff1663ffffffff1663ffffffff1681526020016005820160049054906101000a900463ffffffff1663ffffffff1663ffffffff1681526020016005820160089054906101000a900460ff1615151515815250509050919050565b60606040518060400160405280600b81526020017f68656c6c6f20776f726c64000000000000000000000000000000000000000000815250905090565b600160009054906101000a900473ffffffffffffffffffffffffffffffffffffffff1681565b60008054906101000a900473ffffffffffffffffffffffffffffffffffffffff1673ffffffffffffffffffffffffffffffffffffffff166323b872dd33306107d06040518463ffffffff1660e01b815260040161054a939291906118e5565b602060405180830381600087803b15801561056457600080fd5b505af1158015610578573d6000803e3d6000fd5b505050506040513d601f19601f8201168201806040525081019061059c9190611931565b506000604051806101200160405280600660009054906101000a900463ffffffff1663ffffffff1681526020013373ffffffffffffffffffffffffffffffffffffffff16815260200188815260200187815260200186868080601f016020809104026020016040519081016040528093929190818152602001838380828437600081840152601f19601f82011690508083019250505050505050815260200184848080601f016020809104026020016040519081016040528093929190818152602001838380828437600081840152601f19601f820116905080830192505050505050508152602001600063ffffffff168152602001600063ffffffff1681526020016000151581525090508060026000600660009054906101000a900463ffffffff1663ffffffff1663ffffffff16815260200190815260200160002060008201518160000160006101000a81548163ffffffff021916908363ffffffff16021790555060208201518160000160046101000a81548173ffffffffffffffffffffffffffffffffffffffff021916908373ffffffffffffffffffffffffffffffffffffffff16021790555060408201518160010155606082015181600201556080820151816003019080519060200190610778929190611169565b5060a0820151816004019080519060200190610795929190611169565b5060c08201518160050160006101000a81548163ffffffff021916908363ffffffff16021790555060e08201518160050160046101000a81548163ffffffff021916908363ffffffff1602179055506101008201518160050160086101000a81548160ff021916908315150217905550905050600460003373ffffffffffffffffffffffffffffffffffffffff1673ffffffffffffffffffffffffffffffffffffffff168152602001908152602001600020600660009054906101000a900463ffffffff1690806001815401808255809150506001900390600052602060002090600891828204019190066004029091909190916101000a81548163ffffffff021916908363ffffffff1602179055506006600081819054906101000a900463ffffffff16809291906108c79061198d565b91906101000a81548163ffffffff021916908363ffffffff1602179055505050505050505050565b6109c481565b60008054906101000a900473ffffffffffffffffffffffffffffffffffffffff1681565b600660009054906101000a900463ffffffff1663ffffffff168263ffffffff1610610979576040517f08c379a000000000000000000000000000000000000000000000000000000000815260040161097090611a06565b60405180910390fd5b60001515600360008463ffffffff1663ffffffff16815260200190815260200160002060003373ffffffffffffffffffffffffffffffffffffffff1673ffffffffffffffffffffffffffffffffffffffff16815260200190815260200160002060009054906101000a900460ff16151514610a29576040517f08c379a0000000000000000000000000000000000000000000000000000000008152600401610a2090611a72565b60405180910390fd5b60001515600260008463ffffffff1663ffffffff16815260200190815260200160002060050160089054906101000a900460ff16151514610a9f576040517f08c379a0000000000000000000000000000000000000000000000000000000008152600401610a9690611b04565b60405180910390fd5b8015610b0b57600260008363ffffffff1663ffffffff168152602001908152602001600020600501600081819054906101000a900463ffffffff1680929190610ae79061198d565b91906101000a81548163ffffffff021916908363ffffffff16021790555050610b6d565b600260008363ffffffff1663ffffffff168152602001908152602001600020600501600481819054906101000a900463ffffffff1680929190610b4d9061198d565b91906101000a81548163ffffffff021916908363ffffffff160217905550505b60008054906101000a900473ffffffffffffffffffffffffffffffffffffffff1673ffffffffffffffffffffffffffffffffffffffff166323b872dd33306101f46040518463ffffffff1660e01b8152600401610bcc939291906118e5565b602060405180830381600087803b158015610be657600080fd5b505af1158015610bfa573d6000803e3d6000fd5b505050506040513d601f19601f82011682018060405250810190610c1e9190611931565b506001600360008463ffffffff1663ffffffff16815260200190815260200160002060003373ffffffffffffffffffffffffffffffffffffffff1673ffffffffffffffffffffffffffffffffffffffff16815260200190815260200160002060006101000a81548160ff0219169083151502179055505050565b6101f481565b60001515600260008363ffffffff1663ffffffff16815260200190815260200160002060050160089054906101000a900460ff16151514610cde57600080fd5b6001600260008363ffffffff1663ffffffff16815260200190815260200160002060050160086101000a81548160ff021916908315150217905550600260008263ffffffff1663ffffffff16815260200190815260200160002060050160049054906101000a900463ffffffff1663ffffffff16600260008363ffffffff1663ffffffff16815260200190815260200160002060050160009054906101000a900463ffffffff1663ffffffff161115611015576000600260008363ffffffff1663ffffffff16815260200190815260200160002060000160049054906101000a900473ffffffffffffffffffffffffffffffffffffffff16905060008054906101000a900473ffffffffffffffffffffffffffffffffffffffff1673ffffffffffffffffffffffffffffffffffffffff1663a9059cbb826109c46040518363ffffffff1660e01b8152600401610e35929190611b24565b602060405180830381600087803b158015610e4f57600080fd5b505af1158015610e63573d6000803e3d6000fd5b505050506040513d601f19601f82011682018060405250810190610e879190611931565b50600560008273ffffffffffffffffffffffffffffffffffffffff1673ffffffffffffffffffffffffffffffffffffffff168152602001908152602001600020600081819054906101000a900463ffffffff1680929190610ee79061198d565b91906101000a81548163ffffffff021916908363ffffffff160217905550506003600560008373ffffffffffffffffffffffffffffffffffffffff1673ffffffffffffffffffffffffffffffffffffffff16815260200190815260200160002060009054906101000a900463ffffffff1663ffffffff16141561101357600160009054906101000a900473ffffffffffffffffffffffffffffffffffffffff1673ffffffffffffffffffffffffffffffffffffffff166354ba0f27826040518263ffffffff1660e01b8152600401610fbf9190611b4d565b602060405180830381600087803b158015610fd957600080fd5b505af1158015610fed573d6000803e3d6000fd5b505050506040513d601f19601f820116820180604052508101906110119190611b7d565b505b505b50565b6000600660009054906101000a900463ffffffff16905090565b6060600460003373ffffffffffffffffffffffffffffffffffffffff1673ffffffffffffffffffffffffffffffffffffffff1681526020019081526020016000208054806020026020016040519081016040528092919081815260200182805480156110e957602002820191906000526020600020906000905b82829054906101000a900463ffffffff1663ffffffff16815260200190600401906020826003010492830192600103820291508084116110ac5790505b5050505050905090565b604051806101200160405280600063ffffffff168152602001600073ffffffffffffffffffffffffffffffffffffffff16815260200160008152602001600081526020016060815260200160608152602001600063ffffffff168152602001600063ffffffff1681526020016000151581525090565b828054611175906118a4565b90600052602060002090601f01602090048101928261119757600085556111de565b82601f106111b057805160ff19168380011785556111de565b828001600101855582156111de579182015b828111156111dd5782518255916020019190600101906111c2565b5b5090506111eb91906111ef565b5090565b5b808211156112085760008160009055506001016111f0565b5090565b6000819050919050565b61121f8161120c565b82525050565b600060208201905061123a6000830184611216565b92915050565b600080fd5b600080fd5b600063ffffffff82169050919050565b6112638161124a565b811461126e57600080fd5b50565b6000813590506112808161125a565b92915050565b60006020828403121561129c5761129b611240565b5b60006112aa84828501611271565b91505092915050565b6112bc8161124a565b82525050565b600073ffffffffffffffffffffffffffffffffffffffff82169050919050565b60006112ed826112c2565b9050919050565b6112fd816112e2565b82525050565b61130c8161120c565b82525050565b600081519050919050565b600082825260208201905092915050565b60005b8381101561134c578082015181840152602081019050611331565b8381111561135b576000848401525b50505050565b6000601f19601f8301169050919050565b600061137d82611312565b611387818561131d565b935061139781856020860161132e565b6113a081611361565b840191505092915050565b60008115159050919050565b6113c0816113ab565b82525050565b6000610120830160008301516113df60008601826112b3565b5060208301516113f260208601826112f4565b5060408301516114056040860182611303565b5060608301516114186060860182611303565b50608083015184820360808601526114308282611372565b91505060a083015184820360a086015261144a8282611372565b91505060c083015161145f60c08601826112b3565b5060e083015161147260e08601826112b3565b506101008301516114876101008601826113b7565b508091505092915050565b600060208201905081810360008301526114ac81846113c6565b905092915050565b600082825260208201905092915050565b60006114d082611312565b6114da81856114b4565b93506114ea81856020860161132e565b6114f381611361565b840191505092915050565b6000602082019050818103600083015261151881846114c5565b905092915050565b6000819050919050565b600061154561154061153b846112c2565b611520565b6112c2565b9050919050565b60006115578261152a565b9050919050565b60006115698261154c565b9050919050565b6115798161155e565b82525050565b60006020820190506115946000830184611570565b92915050565b6115a38161120c565b81146115ae57600080fd5b50565b6000813590506115c08161159a565b92915050565b600080fd5b600080fd5b600080fd5b60008083601f8401126115eb576115ea6115c6565b5b8235905067ffffffffffffffff811115611608576116076115cb565b5b602083019150836001820283011115611624576116236115d0565b5b9250929050565b6000806000806000806080878903121561164857611647611240565b5b600061165689828a016115b1565b965050602061166789828a016115b1565b955050604087013567ffffffffffffffff81111561168857611687611245565b5b61169489828a016115d5565b9450945050606087013567ffffffffffffffff8111156116b7576116b6611245565b5b6116c389828a016115d5565b92509250509295509295509295565b60006116dd8261154c565b9050919050565b6116ed816116d2565b82525050565b600060208201905061170860008301846116e4565b92915050565b611717816113ab565b811461172257600080fd5b50565b6000813590506117348161170e565b92915050565b6000806040838503121561175157611750611240565b5b600061175f85828601611271565b925050602061177085828601611725565b9150509250929050565b6117838161124a565b82525050565b600060208201905061179e600083018461177a565b92915050565b600081519050919050565b600082825260208201905092915050565b6000819050602082019050919050565b60006117dc83836112b3565b60208301905092915050565b6000602082019050919050565b6000611800826117a4565b61180a81856117af565b9350611815836117c0565b8060005b8381101561184657815161182d88826117d0565b9750611838836117e8565b925050600181019050611819565b5085935050505092915050565b6000602082019050818103600083015261186d81846117f5565b905092915050565b7f4e487b7100000000000000000000000000000000000000000000000000000000600052602260045260246000fd5b600060028204905060018216806118bc57607f821691505b602082108114156118d0576118cf611875565b5b50919050565b6118df816112e2565b82525050565b60006060820190506118fa60008301866118d6565b61190760208301856118d6565b6119146040830184611216565b949350505050565b60008151905061192b8161170e565b92915050565b60006020828403121561194757611946611240565b5b60006119558482850161191c565b91505092915050565b7f4e487b7100000000000000000000000000000000000000000000000000000000600052601160045260246000fd5b60006119988261124a565b915063ffffffff8214156119af576119ae61195e565b5b600182019050919050565b7f546869732070726f706f73616c20646f6573206e6f742065786973742e000000600082015250565b60006119f0601d836114b4565b91506119fb826119ba565b602082019050919050565b60006020820190508181036000830152611a1f816119e3565b9050919050565b7f596f752063616e206f6e6c7920766f7465206f6e63652e000000000000000000600082015250565b6000611a5c6017836114b4565b9150611a6782611a26565b602082019050919050565b60006020820190508181036000830152611a8b81611a4f565b9050919050565b7f54686520766f74696e6720666f7220746869732070726f706f73616c2068617360008201527f20656e6465642e00000000000000000000000000000000000000000000000000602082015250565b6000611aee6027836114b4565b9150611af982611a92565b604082019050919050565b60006020820190508181036000830152611b1d81611ae1565b9050919050565b6000604082019050611b3960008301856118d6565b611b466020830184611216565b9392505050565b6000602082019050611b6260008301846118d6565b92915050565b600081519050611b778161159a565b92915050565b600060208284031215611b9357611b92611240565b5b6000611ba184828501611b68565b9150509291505056fea26469706673582212209a3d9a621f9dda8fd8ea9358091d0761a0ddb812550b7a1952928aa1219f18fb64736f6c6343000809003360806040523480156200001157600080fd5b5060405162001ad338038062001ad38339818101604052810190620000379190620002c2565b818181600390805190602001906200005192919062000075565b5080600490805190602001906200006a92919062000075565b5050505050620003ac565b828054620000839062000376565b90600052602060002090601f016020900481019282620000a75760008555620000f3565b82601f10620000c257805160ff1916838001178555620000f3565b82800160010185558215620000f3579182015b82811115620000f2578251825591602001919060010190620000d5565b5b50905062000102919062000106565b5090565b5b808211156200012157600081600090555060010162000107565b5090565b6000604051905090565b600080fd5b600080fd5b600080fd5b600080fd5b6000601f19601f8301169050919050565b7f4e487b7100000000000000000000000000000000000000000000000000000000600052604160045260246000fd5b6200018e8262000143565b810181811067ffffffffffffffff82111715620001b057620001af62000154565b5b80604052505050565b6000620001c562000125565b9050620001d3828262000183565b919050565b600067ffffffffffffffff821115620001f657620001f562000154565b5b620002018262000143565b9050602081019050919050565b60005b838110156200022e57808201518184015260208101905062000211565b838111156200023e576000848401525b50505050565b60006200025b6200025584620001d8565b620001b9565b9050828152602081018484840111156200027a57620002796200013e565b5b620002878482856200020e565b509392505050565b600082601f830112620002a757620002a662000139565b5b8151620002b984826020860162000244565b91505092915050565b60008060408385031215620002dc57620002db6200012f565b5b600083015167ffffffffffffffff811115620002fd57620002fc62000134565b5b6200030b858286016200028f565b925050602083015167ffffffffffffffff8111156200032f576200032e62000134565b5b6200033d858286016200028f565b9150509250929050565b7f4e487b7100000000000000000000000000000000000000000000000000000000600052602260045260246000fd5b600060028204905060018216806200038f57607f821691505b60208210811415620003a657620003a562000347565b5b50919050565b61171780620003bc6000396000f3fe608060405234801561001057600080fd5b50600436106100b45760003560e01c80633950935111610071578063395093511461017d57806370a08231146101ad57806395d89b41146101dd578063a457c2d7146101fb578063a9059cbb1461022b578063dd62ed3e1461025b576100b4565b806306fdde03146100b9578063095ea7b3146100d757806318160ddd1461010757806323b872dd14610125578063313ce567146101555780633884d63514610173575b600080fd5b6100c161028b565b6040516100ce9190610e94565b60405180910390f35b6100f160048036038101906100ec9190610f4f565b61031d565b6040516100fe9190610faa565b60405180910390f35b61010f610340565b60405161011c9190610fd4565b60405180910390f35b61013f600480360381019061013a9190610fef565b61034a565b60405161014c9190610faa565b60405180910390f35b61015d610379565b60405161016a919061105e565b60405180910390f35b61017b610382565b005b61019760048036038101906101929190610f4f565b6104ba565b6040516101a49190610faa565b60405180910390f35b6101c760048036038101906101c29190611079565b6104f1565b6040516101d49190610fd4565b60405180910390f35b6101e5610539565b6040516101f29190610e94565b60405180910390f35b61021560048036038101906102109190610f4f565b6105cb565b6040516102229190610faa565b60405180910390f35b61024560048036038101906102409190610f4f565b610642565b6040516102529190610faa565b60405180910390f35b610275600480360381019061027091906110a6565b610665565b6040516102829190610fd4565b60405180910390f35b60606003805461029a90611115565b80601f01602080910402602001604051908101604052809291908181526020018280546102c690611115565b80156103135780601f106102e857610100808354040283529160200191610313565b820191906000526020600020905b8154815290600101906020018083116102f657829003601f168201915b5050505050905090565b6000806103286106ec565b90506103358185856106f4565b600191505092915050565b6000600254905090565b6000806103556106ec565b90506103628582856108bf565b61036d85858561094b565b60019150509392505050565b60006012905090565b6103c16040518060400160405280601881526020017f257320747279696e6720746f206765742061697264726f70000000000000000081525033610bcc565b60001515600560003373ffffffffffffffffffffffffffffffffffffffff1673ffffffffffffffffffffffffffffffffffffffff16815260200190815260200160002060009054906101000a900460ff16151514610454576040517f08c379a000000000000000000000000000000000000000000000000000000000815260040161044b906111b9565b60405180910390fd5b61046033612710610c68565b6001600560003373ffffffffffffffffffffffffffffffffffffffff1673ffffffffffffffffffffffffffffffffffffffff16815260200190815260200160002060006101000a81548160ff021916908315150217905550565b6000806104c56106ec565b90506104e68185856104d78589610665565b6104e19190611208565b6106f4565b600191505092915050565b60008060008373ffffffffffffffffffffffffffffffffffffffff1673ffffffffffffffffffffffffffffffffffffffff168152602001908152602001600020549050919050565b60606004805461054890611115565b80601f016020809104026020016040519081016040528092919081815260200182805461057490611115565b80156105c15780601f10610596576101008083540402835291602001916105c1565b820191906000526020600020905b8154815290600101906020018083116105a457829003601f168201915b5050505050905090565b6000806105d66106ec565b905060006105e48286610665565b905083811015610629576040517f08c379a0000000000000000000000000000000000000000000000000000000008152600401610620906112d0565b60405180910390fd5b61063682868684036106f4565b60019250505092915050565b60008061064d6106ec565b905061065a81858561094b565b600191505092915050565b6000600160008473ffffffffffffffffffffffffffffffffffffffff1673ffffffffffffffffffffffffffffffffffffffff16815260200190815260200160002060008373ffffffffffffffffffffffffffffffffffffffff1673ffffffffffffffffffffffffffffffffffffffff16815260200190815260200160002054905092915050565b600033905090565b600073ffffffffffffffffffffffffffffffffffffffff168373ffffffffffffffffffffffffffffffffffffffff161415610764576040517f08c379a000000000000000000000000000000000000000000000000000000000815260040161075b90611362565b60405180910390fd5b600073ffffffffffffffffffffffffffffffffffffffff168273ffffffffffffffffffffffffffffffffffffffff1614156107d4576040517f08c379a00000000000000000000000000000000000000000000000000000000081526004016107cb906113f4565b60405180910390fd5b80600160008573ffffffffffffffffffffffffffffffffffffffff1673ffffffffffffffffffffffffffffffffffffffff16815260200190815260200160002060008473ffffffffffffffffffffffffffffffffffffffff1673ffffffffffffffffffffffffffffffffffffffff168152602001908152602001600020819055508173ffffffffffffffffffffffffffffffffffffffff168373ffffffffffffffffffffffffffffffffffffffff167f8c5be1e5ebec7d5bd14f71427d1e84f3dd0314c0f7b2291e5b200ac8c7c3b925836040516108b29190610fd4565b60405180910390a3505050565b60006108cb8484610665565b90507fffffffffffffffffffffffffffffffffffffffffffffffffffffffffffffffff81146109455781811015610937576040517f08c379a000000000000000000000000000000000000000000000000000000000815260040161092e90611460565b60405180910390fd5b61094484848484036106f4565b5b50505050565b600073ffffffffffffffffffffffffffffffffffffffff168373ffffffffffffffffffffffffffffffffffffffff1614156109bb576040517f08c379a00000000000000000000000000000000000000000000000000000000081526004016109b2906114f2565b60405180910390fd5b600073ffffffffffffffffffffffffffffffffffffffff168273ffffffffffffffffffffffffffffffffffffffff161415610a2b576040517f08c379a0000000000000000000000000000000000000000000000000000000008152600401610a2290611584565b60405180910390fd5b610a36838383610dc8565b60008060008573ffffffffffffffffffffffffffffffffffffffff1673ffffffffffffffffffffffffffffffffffffffff16815260200190815260200160002054905081811015610abc576040517f08c379a0000000000000000000000000000000000000000000000000000000008152600401610ab390611616565b60405180910390fd5b8181036000808673ffffffffffffffffffffffffffffffffffffffff1673ffffffffffffffffffffffffffffffffffffffff16815260200190815260200160002081905550816000808573ffffffffffffffffffffffffffffffffffffffff1673ffffffffffffffffffffffffffffffffffffffff1681526020019081526020016000206000828254610b4f9190611208565b925050819055508273ffffffffffffffffffffffffffffffffffffffff168473ffffffffffffffffffffffffffffffffffffffff167fddf252ad1be2c89b69c2b068fc378daa952ba7f163c4a11628f55a4df523b3ef84604051610bb39190610fd4565b60405180910390a3610bc6848484610dcd565b50505050565b610c648282604051602401610be2929190611645565b6040516020818303038152906040527f319af333000000000000000000000000000000000000000000000000000000007bffffffffffffffffffffffffffffffffffffffffffffffffffffffff19166020820180517bffffffffffffffffffffffffffffffffffffffffffffffffffffffff8381831617835250505050610dd2565b5050565b600073ffffffffffffffffffffffffffffffffffffffff168273ffffffffffffffffffffffffffffffffffffffff161415610cd8576040517f08c379a0000000000000000000000000000000000000000000000000000000008152600401610ccf906116c1565b60405180910390fd5b610ce460008383610dc8565b8060026000828254610cf69190611208565b92505081905550806000808473ffffffffffffffffffffffffffffffffffffffff1673ffffffffffffffffffffffffffffffffffffffff1681526020019081526020016000206000828254610d4b9190611208565b925050819055508173ffffffffffffffffffffffffffffffffffffffff16600073ffffffffffffffffffffffffffffffffffffffff167fddf252ad1be2c89b69c2b068fc378daa952ba7f163c4a11628f55a4df523b3ef83604051610db09190610fd4565b60405180910390a3610dc460008383610dcd565b5050565b505050565b505050565b60008151905060006a636f6e736f6c652e6c6f679050602083016000808483855afa5050505050565b600081519050919050565b600082825260208201905092915050565b60005b83811015610e35578082015181840152602081019050610e1a565b83811115610e44576000848401525b50505050565b6000601f19601f8301169050919050565b6000610e6682610dfb565b610e708185610e06565b9350610e80818560208601610e17565b610e8981610e4a565b840191505092915050565b60006020820190508181036000830152610eae8184610e5b565b905092915050565b600080fd5b600073ffffffffffffffffffffffffffffffffffffffff82169050919050565b6000610ee682610ebb565b9050919050565b610ef681610edb565b8114610f0157600080fd5b50565b600081359050610f1381610eed565b92915050565b6000819050919050565b610f2c81610f19565b8114610f3757600080fd5b50565b600081359050610f4981610f23565b92915050565b60008060408385031215610f6657610f65610eb6565b5b6000610f7485828601610f04565b9250506020610f8585828601610f3a565b9150509250929050565b60008115159050919050565b610fa481610f8f565b82525050565b6000602082019050610fbf6000830184610f9b565b92915050565b610fce81610f19565b82525050565b6000602082019050610fe96000830184610fc5565b92915050565b60008060006060848603121561100857611007610eb6565b5b600061101686828701610f04565b935050602061102786828701610f04565b925050604061103886828701610f3a565b9150509250925092565b600060ff82169050919050565b61105881611042565b82525050565b6000602082019050611073600083018461104f565b92915050565b60006020828403121561108f5761108e610eb6565b5b600061109d84828501610f04565b91505092915050565b600080604083850312156110bd576110bc610eb6565b5b60006110cb85828601610f04565b92505060206110dc85828601610f04565b9150509250929050565b7f4e487b7100000000000000000000000000000000000000000000000000000000600052602260045260246000fd5b6000600282049050600182168061112d57607f821691505b60208210811415611141576111406110e6565b5b50919050565b7f5468697320757365722068617320636c61696d65642061697264726f7020616c60008201527f7265616479000000000000000000000000000000000000000000000000000000602082015250565b60006111a3602583610e06565b91506111ae82611147565b604082019050919050565b600060208201905081810360008301526111d281611196565b9050919050565b7f4e487b7100000000000000000000000000000000000000000000000000000000600052601160045260246000fd5b600061121382610f19565b915061121e83610f19565b9250827fffffffffffffffffffffffffffffffffffffffffffffffffffffffffffffffff03821115611253576112526111d9565b5b828201905092915050565b7f45524332303a2064656372656173656420616c6c6f77616e63652062656c6f7760008201527f207a65726f000000000000000000000000000000000000000000000000000000602082015250565b60006112ba602583610e06565b91506112c58261125e565b604082019050919050565b600060208201905081810360008301526112e9816112ad565b9050919050565b7f45524332303a20617070726f76652066726f6d20746865207a65726f2061646460008201527f7265737300000000000000000000000000000000000000000000000000000000602082015250565b600061134c602483610e06565b9150611357826112f0565b604082019050919050565b6000602082019050818103600083015261137b8161133f565b9050919050565b7f45524332303a20617070726f766520746f20746865207a65726f20616464726560008201527f7373000000000000000000000000000000000000000000000000000000000000602082015250565b60006113de602283610e06565b91506113e982611382565b604082019050919050565b6000602082019050818103600083015261140d816113d1565b9050919050565b7f45524332303a20696e73756666696369656e7420616c6c6f77616e6365000000600082015250565b600061144a601d83610e06565b915061145582611414565b602082019050919050565b600060208201905081810360008301526114798161143d565b9050919050565b7f45524332303a207472616e736665722066726f6d20746865207a65726f20616460008201527f6472657373000000000000000000000000000000000000000000000000000000602082015250565b60006114dc602583610e06565b91506114e782611480565b604082019050919050565b6000602082019050818103600083015261150b816114cf565b9050919050565b7f45524332303a207472616e7366657220746f20746865207a65726f206164647260008201527f6573730000000000000000000000000000000000000000000000000000000000602082015250565b600061156e602383610e06565b915061157982611512565b604082019050919050565b6000602082019050818103600083015261159d81611561565b9050919050565b7f45524332303a207472616e7366657220616d6f756e742065786365656473206260008201527f616c616e63650000000000000000000000000000000000000000000000000000602082015250565b6000611600602683610e06565b915061160b826115a4565b604082019050919050565b6000602082019050818103600083015261162f816115f3565b9050919050565b61163f81610edb565b82525050565b6000604082019050818103600083015261165f8185610e5b565b905061166e6020830184611636565b9392505050565b7f45524332303a206d696e7420746f20746865207a65726f206164647265737300600082015250565b60006116ab601f83610e06565b91506116b682611675565b602082019050919050565b600060208201905081810360008301526116da8161169e565b905091905056fea264697066735822122040ad538b8b7a9370c1a5492e6a96cb5d9b6c615b458c0d68d6d3228491047d6a64736f6c6343000809003360806040523480156200001157600080fd5b506040518060400160405280600381526020017f4e465400000000000000000000000000000000000000000000000000000000008152506040518060400160405280600381526020017f4e46540000000000000000000000000000000000000000000000000000000000815250816000908051906020019062000096929190620000b8565b508060019080519060200190620000af929190620000b8565b505050620001cd565b828054620000c69062000197565b90600052602060002090601f016020900481019282620000ea576000855562000136565b82601f106200010557805160ff191683800117855562000136565b8280016001018555821562000136579182015b828111156200013557825182559160200191906001019062000118565b5b50905062000145919062000149565b5090565b5b80821115620001645760008160009055506001016200014a565b5090565b7f4e487b7100000000000000000000000000000000000000000000000000000000600052602260045260246000fd5b60006002820490506001821680620001b057607f821691505b60208210811415620001c757620001c662000168565b5b50919050565b6136cc80620001dd6000396000f3fe608060405234801561001057600080fd5b50600436106101165760003560e01c80634f6ccce7116100a257806395d89b411161007157806395d89b411461032b578063a22cb46514610349578063b88d4fde14610365578063c87b56dd14610381578063e985e9c5146103b157610116565b80634f6ccce71461026b57806354ba0f271461029b5780636352211e146102cb57806370a08231146102fb57610116565b806310556c86116100e957806310556c86146101b557806318160ddd146101e557806323b872dd146102035780632f745c591461021f57806342842e0e1461024f57610116565b806301ffc9a71461011b57806306fdde031461014b578063081812fc14610169578063095ea7b314610199575b600080fd5b610135600480360381019061013091906124c6565b6103e1565b604051610142919061250e565b60405180910390f35b6101536103f3565b60405161016091906125c2565b60405180910390f35b610183600480360381019061017e919061261a565b610485565b6040516101909190612688565b60405180910390f35b6101b360048036038101906101ae91906126cf565b6104cb565b005b6101cf60048036038101906101ca919061270f565b6105e3565b6040516101dc91906125c2565b60405180910390f35b6101ed6106b4565b6040516101fa919061274b565b60405180910390f35b61021d60048036038101906102189190612766565b6106c1565b005b610239600480360381019061023491906126cf565b610721565b604051610246919061274b565b60405180910390f35b61026960048036038101906102649190612766565b6107c6565b005b6102856004803603810190610280919061261a565b6107e6565b604051610292919061274b565b60405180910390f35b6102b560048036038101906102b0919061270f565b610857565b6040516102c2919061274b565b60405180910390f35b6102e560048036038101906102e0919061261a565b6109c6565b6040516102f29190612688565b60405180910390f35b6103156004803603810190610310919061270f565b610a78565b604051610322919061274b565b60405180910390f35b610333610b30565b60405161034091906125c2565b60405180910390f35b610363600480360381019061035e91906127e5565b610bc2565b005b61037f600480360381019061037a919061295a565b610bd8565b005b61039b6004803603810190610396919061261a565b610c3a565b6040516103a891906125c2565b60405180910390f35b6103cb60048036038101906103c691906129dd565b610c4c565b6040516103d8919061250e565b60405180910390f35b60006103ec82610ce0565b9050919050565b60606000805461040290612a4c565b80601f016020809104026020016040519081016040528092919081815260200182805461042e90612a4c565b801561047b5780601f106104505761010080835404028352916020019161047b565b820191906000526020600020905b81548152906001019060200180831161045e57829003601f168201915b5050505050905090565b600061049082610d5a565b6004600083815260200190815260200160002060009054906101000a900473ffffffffffffffffffffffffffffffffffffffff169050919050565b60006104d6826109c6565b90508073ffffffffffffffffffffffffffffffffffffffff168373ffffffffffffffffffffffffffffffffffffffff161415610547576040517f08c379a000000000000000000000000000000000000000000000000000000000815260040161053e90612af0565b60405180910390fd5b8073ffffffffffffffffffffffffffffffffffffffff16610566610da5565b73ffffffffffffffffffffffffffffffffffffffff16148061059557506105948161058f610da5565b610c4c565b5b6105d4576040517f08c379a00000000000000000000000000000000000000000000000000000000081526004016105cb90612b82565b60405180910390fd5b6105de8383610dad565b505050565b6060600c60008373ffffffffffffffffffffffffffffffffffffffff1673ffffffffffffffffffffffffffffffffffffffff168152602001908152602001600020805461062f90612a4c565b80601f016020809104026020016040519081016040528092919081815260200182805461065b90612a4c565b80156106a85780601f1061067d576101008083540402835291602001916106a8565b820191906000526020600020905b81548152906001019060200180831161068b57829003601f168201915b50505050509050919050565b6000600880549050905090565b6106d26106cc610da5565b82610e66565b610711576040517f08c379a000000000000000000000000000000000000000000000000000000000815260040161070890612c14565b60405180910390fd5b61071c838383610efb565b505050565b600061072c83610a78565b821061076d576040517f08c379a000000000000000000000000000000000000000000000000000000000815260040161076490612ca6565b60405180910390fd5b600660008473ffffffffffffffffffffffffffffffffffffffff1673ffffffffffffffffffffffffffffffffffffffff168152602001908152602001600020600083815260200190815260200160002054905092915050565b6107e183838360405180602001604052806000815250610bd8565b505050565b60006107f06106b4565b8210610831576040517f08c379a000000000000000000000000000000000000000000000000000000000815260040161082890612d38565b60405180910390fd5b6008828154811061084557610844612d58565b5b90600052602060002001549050919050565b6000610863600b611162565b600061086f600b611178565b905061087b8382611186565b7fcf34ef537ac33ee1ac626ca1587a0a7e8e51561e5514f8cb36afa1c5102b3bab6040516108a890612dd3565b60405180910390a160006108bb82611360565b90507fcf34ef537ac33ee1ac626ca1587a0a7e8e51561e5514f8cb36afa1c5102b3bab6040516108ea90612e3f565b60405180910390a17fcf34ef537ac33ee1ac626ca1587a0a7e8e51561e5514f8cb36afa1c5102b3bab8160405161092191906125c2565b60405180910390a161093382826113f1565b7fcf34ef537ac33ee1ac626ca1587a0a7e8e51561e5514f8cb36afa1c5102b3bab60405161096090612eab565b60405180910390a180600c60008673ffffffffffffffffffffffffffffffffffffffff1673ffffffffffffffffffffffffffffffffffffffff16815260200190815260200160002090805190602001906109bb9291906123b7565b508192505050919050565b6000806002600084815260200190815260200160002060009054906101000a900473ffffffffffffffffffffffffffffffffffffffff169050600073ffffffffffffffffffffffffffffffffffffffff168173ffffffffffffffffffffffffffffffffffffffff161415610a6f576040517f08c379a0000000000000000000000000000000000000000000000000000000008152600401610a6690612f17565b60405180910390fd5b80915050919050565b60008073ffffffffffffffffffffffffffffffffffffffff168273ffffffffffffffffffffffffffffffffffffffff161415610ae9576040517f08c379a0000000000000000000000000000000000000000000000000000000008152600401610ae090612fa9565b60405180910390fd5b600360008373ffffffffffffffffffffffffffffffffffffffff1673ffffffffffffffffffffffffffffffffffffffff168152602001908152602001600020549050919050565b606060018054610b3f90612a4c565b80601f0160208091040260200160405190810160405280929190818152602001828054610b6b90612a4c565b8015610bb85780601f10610b8d57610100808354040283529160200191610bb8565b820191906000526020600020905b815481529060010190602001808311610b9b57829003601f168201915b5050505050905090565b610bd4610bcd610da5565b8383611465565b5050565b610be9610be3610da5565b83610e66565b610c28576040517f08c379a0000000000000000000000000000000000000000000000000000000008152600401610c1f90612c14565b60405180910390fd5b610c34848484846115d2565b50505050565b6060610c458261162e565b9050919050565b6000600560008473ffffffffffffffffffffffffffffffffffffffff1673ffffffffffffffffffffffffffffffffffffffff16815260200190815260200160002060008373ffffffffffffffffffffffffffffffffffffffff1673ffffffffffffffffffffffffffffffffffffffff16815260200190815260200160002060009054906101000a900460ff16905092915050565b60007f780e9d63000000000000000000000000000000000000000000000000000000007bffffffffffffffffffffffffffffffffffffffffffffffffffffffff1916827bffffffffffffffffffffffffffffffffffffffffffffffffffffffff19161480610d535750610d5282611741565b5b9050919050565b610d6381611823565b610da2576040517f08c379a0000000000000000000000000000000000000000000000000000000008152600401610d9990612f17565b60405180910390fd5b50565b600033905090565b816004600083815260200190815260200160002060006101000a81548173ffffffffffffffffffffffffffffffffffffffff021916908373ffffffffffffffffffffffffffffffffffffffff160217905550808273ffffffffffffffffffffffffffffffffffffffff16610e20836109c6565b73ffffffffffffffffffffffffffffffffffffffff167f8c5be1e5ebec7d5bd14f71427d1e84f3dd0314c0f7b2291e5b200ac8c7c3b92560405160405180910390a45050565b600080610e72836109c6565b90508073ffffffffffffffffffffffffffffffffffffffff168473ffffffffffffffffffffffffffffffffffffffff161480610eb45750610eb38185610c4c565b5b80610ef257508373ffffffffffffffffffffffffffffffffffffffff16610eda84610485565b73ffffffffffffffffffffffffffffffffffffffff16145b91505092915050565b8273ffffffffffffffffffffffffffffffffffffffff16610f1b826109c6565b73ffffffffffffffffffffffffffffffffffffffff1614610f71576040517f08c379a0000000000000000000000000000000000000000000000000000000008152600401610f689061303b565b60405180910390fd5b600073ffffffffffffffffffffffffffffffffffffffff168273ffffffffffffffffffffffffffffffffffffffff161415610fe1576040517f08c379a0000000000000000000000000000000000000000000000000000000008152600401610fd8906130cd565b60405180910390fd5b610fec83838361188f565b610ff7600082610dad565b6001600360008573ffffffffffffffffffffffffffffffffffffffff1673ffffffffffffffffffffffffffffffffffffffff1681526020019081526020016000206000828254611047919061311c565b925050819055506001600360008473ffffffffffffffffffffffffffffffffffffffff1673ffffffffffffffffffffffffffffffffffffffff168152602001908152602001600020600082825461109e9190613150565b92505081905550816002600083815260200190815260200160002060006101000a81548173ffffffffffffffffffffffffffffffffffffffff021916908373ffffffffffffffffffffffffffffffffffffffff160217905550808273ffffffffffffffffffffffffffffffffffffffff168473ffffffffffffffffffffffffffffffffffffffff167fddf252ad1be2c89b69c2b068fc378daa952ba7f163c4a11628f55a4df523b3ef60405160405180910390a461115d83838361189f565b505050565b6001816000016000828254019250508190555050565b600081600001549050919050565b600073ffffffffffffffffffffffffffffffffffffffff168273ffffffffffffffffffffffffffffffffffffffff1614156111f6576040517f08c379a00000000000000000000000000000000000000000000000000000000081526004016111ed906131f2565b60405180910390fd5b6111ff81611823565b1561123f576040517f08c379a00000000000000000000000000000000000000000000000000000000081526004016112369061325e565b60405180910390fd5b61124b6000838361188f565b6001600360008473ffffffffffffffffffffffffffffffffffffffff1673ffffffffffffffffffffffffffffffffffffffff168152602001908152602001600020600082825461129b9190613150565b92505081905550816002600083815260200190815260200160002060006101000a81548173ffffffffffffffffffffffffffffffffffffffff021916908373ffffffffffffffffffffffffffffffffffffffff160217905550808273ffffffffffffffffffffffffffffffffffffffff16600073ffffffffffffffffffffffffffffffffffffffff167fddf252ad1be2c89b69c2b068fc378daa952ba7f163c4a11628f55a4df523b3ef60405160405180910390a461135c6000838361189f565b5050565b606060008214156113a8576040518060400160405280600181526020017f300000000000000000000000000000000000000000000000000000000000000081525090506113ec565b5b600082146113eb576000600a836113c091906132ad565b9050600a836113cf91906132de565b92506113e36113dd826118a4565b836119fe565b9150506113a9565b5b919050565b6113fa82611823565b611439576040517f08c379a000000000000000000000000000000000000000000000000000000000815260040161143090613381565b60405180910390fd5b80600a600084815260200190815260200160002090805190602001906114609291906123b7565b505050565b8173ffffffffffffffffffffffffffffffffffffffff168373ffffffffffffffffffffffffffffffffffffffff1614156114d4576040517f08c379a00000000000000000000000000000000000000000000000000000000081526004016114cb906133ed565b60405180910390fd5b80600560008573ffffffffffffffffffffffffffffffffffffffff1673ffffffffffffffffffffffffffffffffffffffff16815260200190815260200160002060008473ffffffffffffffffffffffffffffffffffffffff1673ffffffffffffffffffffffffffffffffffffffff16815260200190815260200160002060006101000a81548160ff0219169083151502179055508173ffffffffffffffffffffffffffffffffffffffff168373ffffffffffffffffffffffffffffffffffffffff167f17307eab39ab6107e8899845ad3d59bd9653f200f220920489ca2b5937696c31836040516115c5919061250e565b60405180910390a3505050565b6115dd848484610efb565b6115e984848484611b94565b611628576040517f08c379a000000000000000000000000000000000000000000000000000000000815260040161161f9061347f565b60405180910390fd5b50505050565b606061163982610d5a565b6000600a6000848152602001908152602001600020805461165990612a4c565b80601f016020809104026020016040519081016040528092919081815260200182805461168590612a4c565b80156116d25780601f106116a7576101008083540402835291602001916116d2565b820191906000526020600020905b8154815290600101906020018083116116b557829003601f168201915b5050505050905060006116e3611d2b565b90506000815114156116f957819250505061173c565b60008251111561172e5780826040516020016117169291906134db565b6040516020818303038152906040529250505061173c565b61173784611d42565b925050505b919050565b60007f80ac58cd000000000000000000000000000000000000000000000000000000007bffffffffffffffffffffffffffffffffffffffffffffffffffffffff1916827bffffffffffffffffffffffffffffffffffffffffffffffffffffffff1916148061180c57507f5b5e139f000000000000000000000000000000000000000000000000000000007bffffffffffffffffffffffffffffffffffffffffffffffffffffffff1916827bffffffffffffffffffffffffffffffffffffffffffffffffffffffff1916145b8061181c575061181b82611daa565b5b9050919050565b60008073ffffffffffffffffffffffffffffffffffffffff166002600084815260200190815260200160002060009054906101000a900473ffffffffffffffffffffffffffffffffffffffff1673ffffffffffffffffffffffffffffffffffffffff1614159050919050565b61189a838383611e14565b505050565b505050565b606060006040518060400160405280601081526020017f303132333435363738396162636465660000000000000000000000000000000081525090506000836040516020016118f39190613520565b60405160208183030381529060405290506000600167ffffffffffffffff8111156119215761192061282f565b5b6040519080825280601f01601f1916602001820160405280156119535781602001600182028036833780820191505090505b509050600060018351611966919061311c565b905083600f60f81b84838151811061198157611980612d58565b5b602001015160f81c60f81b1660f81c60ff16815181106119a4576119a3612d58565b5b602001015160f81c60f81b826000815181106119c3576119c2612d58565b5b60200101907effffffffffffffffffffffffffffffffffffffffffffffffffffffffffffff1916908160001a90535081945050505050919050565b606060008390506000839050600081518351611a1a9190613150565b67ffffffffffffffff811115611a3357611a3261282f565b5b6040519080825280601f01601f191660200182016040528015611a655781602001600182028036833780820191505090505b50905060008190506000805b8551811015611af957858181518110611a8d57611a8c612d58565b5b602001015160f81c60f81b838380611aa49061353b565b945081518110611ab757611ab6612d58565b5b60200101907effffffffffffffffffffffffffffffffffffffffffffffffffffffffffffff1916908160001a9053508080611af19061353b565b915050611a71565b5060005b8451811015611b8557848181518110611b1957611b18612d58565b5b602001015160f81c60f81b838380611b309061353b565b945081518110611b4357611b42612d58565b5b60200101907effffffffffffffffffffffffffffffffffffffffffffffffffffffffffffff1916908160001a9053508080611b7d9061353b565b915050611afd565b50829550505050505092915050565b6000611bb58473ffffffffffffffffffffffffffffffffffffffff16611f28565b15611d1e578373ffffffffffffffffffffffffffffffffffffffff1663150b7a02611bde610da5565b8786866040518563ffffffff1660e01b8152600401611c0094939291906135d9565b602060405180830381600087803b158015611c1a57600080fd5b505af1925050508015611c4b57506040513d601f19601f82011682018060405250810190611c48919061363a565b60015b611cce573d8060008114611c7b576040519150601f19603f3d011682016040523d82523d6000602084013e611c80565b606091505b50600081511415611cc6576040517f08c379a0000000000000000000000000000000000000000000000000000000008152600401611cbd9061347f565b60405180910390fd5b805181602001fd5b63150b7a0260e01b7bffffffffffffffffffffffffffffffffffffffffffffffffffffffff1916817bffffffffffffffffffffffffffffffffffffffffffffffffffffffff191614915050611d23565b600190505b949350505050565b606060405180602001604052806000815250905090565b6060611d4d82610d5a565b6000611d57611d2b565b90506000815111611d775760405180602001604052806000815250611da2565b80611d8184611f4b565b604051602001611d929291906134db565b6040516020818303038152906040525b915050919050565b60007f01ffc9a7000000000000000000000000000000000000000000000000000000007bffffffffffffffffffffffffffffffffffffffffffffffffffffffff1916827bffffffffffffffffffffffffffffffffffffffffffffffffffffffff1916149050919050565b611e1f8383836120ac565b600073ffffffffffffffffffffffffffffffffffffffff168373ffffffffffffffffffffffffffffffffffffffff161415611e6257611e5d816120b1565b611ea1565b8173ffffffffffffffffffffffffffffffffffffffff168373ffffffffffffffffffffffffffffffffffffffff1614611ea057611e9f83826120fa565b5b5b600073ffffffffffffffffffffffffffffffffffffffff168273ffffffffffffffffffffffffffffffffffffffff161415611ee457611edf81612267565b611f23565b8273ffffffffffffffffffffffffffffffffffffffff168273ffffffffffffffffffffffffffffffffffffffff1614611f2257611f218282612338565b5b5b505050565b6000808273ffffffffffffffffffffffffffffffffffffffff163b119050919050565b60606000821415611f93576040518060400160405280600181526020017f300000000000000000000000000000000000000000000000000000000000000081525090506120a7565b600082905060005b60008214611fc5578080611fae9061353b565b915050600a82611fbe91906132de565b9150611f9b565b60008167ffffffffffffffff811115611fe157611fe061282f565b5b6040519080825280601f01601f1916602001820160405280156120135781602001600182028036833780820191505090505b5090505b600085146120a05760018261202c919061311c565b9150600a8561203b91906132ad565b60306120479190613150565b60f81b81838151811061205d5761205c612d58565b5b60200101907effffffffffffffffffffffffffffffffffffffffffffffffffffffffffffff1916908160001a905350600a8561209991906132de565b9450612017565b8093505050505b919050565b505050565b6008805490506009600083815260200190815260200160002081905550600881908060018154018082558091505060019003906000526020600020016000909190919091505550565b6000600161210784610a78565b612111919061311c565b90506000600760008481526020019081526020016000205490508181146121f6576000600660008673ffffffffffffffffffffffffffffffffffffffff1673ffffffffffffffffffffffffffffffffffffffff168152602001908152602001600020600084815260200190815260200160002054905080600660008773ffffffffffffffffffffffffffffffffffffffff1673ffffffffffffffffffffffffffffffffffffffff168152602001908152602001600020600084815260200190815260200160002081905550816007600083815260200190815260200160002081905550505b6007600084815260200190815260200160002060009055600660008573ffffffffffffffffffffffffffffffffffffffff1673ffffffffffffffffffffffffffffffffffffffff16815260200190815260200160002060008381526020019081526020016000206000905550505050565b6000600160088054905061227b919061311c565b90506000600960008481526020019081526020016000205490506000600883815481106122ab576122aa612d58565b5b9060005260206000200154905080600883815481106122cd576122cc612d58565b5b90600052602060002001819055508160096000838152602001908152602001600020819055506009600085815260200190815260200160002060009055600880548061231c5761231b613667565b5b6001900381819060005260206000200160009055905550505050565b600061234383610a78565b905081600660008573ffffffffffffffffffffffffffffffffffffffff1673ffffffffffffffffffffffffffffffffffffffff168152602001908152602001600020600083815260200190815260200160002081905550806007600084815260200190815260200160002081905550505050565b8280546123c390612a4c565b90600052602060002090601f0160209004810192826123e5576000855561242c565b82601f106123fe57805160ff191683800117855561242c565b8280016001018555821561242c579182015b8281111561242b578251825591602001919060010190612410565b5b509050612439919061243d565b5090565b5b8082111561245657600081600090555060010161243e565b5090565b6000604051905090565b600080fd5b600080fd5b60007fffffffff0000000000000000000000000000000000000000000000000000000082169050919050565b6124a38161246e565b81146124ae57600080fd5b50565b6000813590506124c08161249a565b92915050565b6000602082840312156124dc576124db612464565b5b60006124ea848285016124b1565b91505092915050565b60008115159050919050565b612508816124f3565b82525050565b600060208201905061252360008301846124ff565b92915050565b600081519050919050565b600082825260208201905092915050565b60005b83811015612563578082015181840152602081019050612548565b83811115612572576000848401525b50505050565b6000601f19601f8301169050919050565b600061259482612529565b61259e8185612534565b93506125ae818560208601612545565b6125b781612578565b840191505092915050565b600060208201905081810360008301526125dc8184612589565b905092915050565b6000819050919050565b6125f7816125e4565b811461260257600080fd5b50565b600081359050612614816125ee565b92915050565b6000602082840312156126305761262f612464565b5b600061263e84828501612605565b91505092915050565b600073ffffffffffffffffffffffffffffffffffffffff82169050919050565b600061267282612647565b9050919050565b61268281612667565b82525050565b600060208201905061269d6000830184612679565b92915050565b6126ac81612667565b81146126b757600080fd5b50565b6000813590506126c9816126a3565b92915050565b600080604083850312156126e6576126e5612464565b5b60006126f4858286016126ba565b925050602061270585828601612605565b9150509250929050565b60006020828403121561272557612724612464565b5b6000612733848285016126ba565b91505092915050565b612745816125e4565b82525050565b6000602082019050612760600083018461273c565b92915050565b60008060006060848603121561277f5761277e612464565b5b600061278d868287016126ba565b935050602061279e868287016126ba565b92505060406127af86828701612605565b9150509250925092565b6127c2816124f3565b81146127cd57600080fd5b50565b6000813590506127df816127b9565b92915050565b600080604083850312156127fc576127fb612464565b5b600061280a858286016126ba565b925050602061281b858286016127d0565b9150509250929050565b600080fd5b600080fd5b7f4e487b7100000000000000000000000000000000000000000000000000000000600052604160045260246000fd5b61286782612578565b810181811067ffffffffffffffff821117156128865761288561282f565b5b80604052505050565b600061289961245a565b90506128a5828261285e565b919050565b600067ffffffffffffffff8211156128c5576128c461282f565b5b6128ce82612578565b9050602081019050919050565b82818337600083830152505050565b60006128fd6128f8846128aa565b61288f565b9050828152602081018484840111156129195761291861282a565b5b6129248482856128db565b509392505050565b600082601f83011261294157612940612825565b5b81356129518482602086016128ea565b91505092915050565b6000806000806080858703121561297457612973612464565b5b6000612982878288016126ba565b9450506020612993878288016126ba565b93505060406129a487828801612605565b925050606085013567ffffffffffffffff8111156129c5576129c4612469565b5b6129d18782880161292c565b91505092959194509250565b600080604083850312156129f4576129f3612464565b5b6000612a02858286016126ba565b9250506020612a13858286016126ba565b9150509250929050565b7f4e487b7100000000000000000000000000000000000000000000000000000000600052602260045260246000fd5b60006002820490506001821680612a6457607f821691505b60208210811415612a7857612a77612a1d565b5b50919050565b7f4552433732313a20617070726f76616c20746f2063757272656e74206f776e6560008201527f7200000000000000000000000000000000000000000000000000000000000000602082015250565b6000612ada602183612534565b9150612ae582612a7e565b604082019050919050565b60006020820190508181036000830152612b0981612acd565b9050919050565b7f4552433732313a20617070726f76652063616c6c6572206973206e6f7420746f60008201527f6b656e206f776e6572206e6f7220617070726f76656420666f7220616c6c0000602082015250565b6000612b6c603e83612534565b9150612b7782612b10565b604082019050919050565b60006020820190508181036000830152612b9b81612b5f565b9050919050565b7f4552433732313a2063616c6c6572206973206e6f7420746f6b656e206f776e6560008201527f72206e6f7220617070726f766564000000000000000000000000000000000000602082015250565b6000612bfe602e83612534565b9150612c0982612ba2565b604082019050919050565b60006020820190508181036000830152612c2d81612bf1565b9050919050565b7f455243373231456e756d657261626c653a206f776e657220696e646578206f7560008201527f74206f6620626f756e6473000000000000000000000000000000000000000000602082015250565b6000612c90602b83612534565b9150612c9b82612c34565b604082019050919050565b60006020820190508181036000830152612cbf81612c83565b9050919050565b7f455243373231456e756d657261626c653a20676c6f62616c20696e646578206f60008201527f7574206f6620626f756e64730000000000000000000000000000000000000000602082015250565b6000612d22602c83612534565b9150612d2d82612cc6565b604082019050919050565b60006020820190508181036000830152612d5181612d15565b9050919050565b7f4e487b7100000000000000000000000000000000000000000000000000000000600052603260045260246000fd5b7f6d696e7420746f6b656e00000000000000000000000000000000000000000000600082015250565b6000612dbd600a83612534565b9150612dc882612d87565b602082019050919050565b60006020820190508181036000830152612dec81612db0565b9050919050565b7f6765742075726c3a200000000000000000000000000000000000000000000000600082015250565b6000612e29600983612534565b9150612e3482612df3565b602082019050919050565b60006020820190508181036000830152612e5881612e1c565b9050919050565b7f7365742075726c3a200000000000000000000000000000000000000000000000600082015250565b6000612e95600983612534565b9150612ea082612e5f565b602082019050919050565b60006020820190508181036000830152612ec481612e88565b9050919050565b7f4552433732313a20696e76616c696420746f6b656e2049440000000000000000600082015250565b6000612f01601883612534565b9150612f0c82612ecb565b602082019050919050565b60006020820190508181036000830152612f3081612ef4565b9050919050565b7f4552433732313a2061646472657373207a65726f206973206e6f74206120766160008201527f6c6964206f776e65720000000000000000000000000000000000000000000000602082015250565b6000612f93602983612534565b9150612f9e82612f37565b604082019050919050565b60006020820190508181036000830152612fc281612f86565b9050919050565b7f4552433732313a207472616e736665722066726f6d20696e636f72726563742060008201527f6f776e6572000000000000000000000000000000000000000000000000000000602082015250565b6000613025602583612534565b915061303082612fc9565b604082019050919050565b6000602082019050818103600083015261305481613018565b9050919050565b7f4552433732313a207472616e7366657220746f20746865207a65726f2061646460008201527f7265737300000000000000000000000000000000000000000000000000000000602082015250565b60006130b7602483612534565b91506130c28261305b565b604082019050919050565b600060208201905081810360008301526130e6816130aa565b9050919050565b7f4e487b7100000000000000000000000000000000000000000000000000000000600052601160045260246000fd5b6000613127826125e4565b9150613132836125e4565b925082821015613145576131446130ed565b5b828203905092915050565b600061315b826125e4565b9150613166836125e4565b9250827fffffffffffffffffffffffffffffffffffffffffffffffffffffffffffffffff0382111561319b5761319a6130ed565b5b828201905092915050565b7f4552433732313a206d696e7420746f20746865207a65726f2061646472657373600082015250565b60006131dc602083612534565b91506131e7826131a6565b602082019050919050565b6000602082019050818103600083015261320b816131cf565b9050919050565b7f4552433732313a20746f6b656e20616c7265616479206d696e74656400000000600082015250565b6000613248601c83612534565b915061325382613212565b602082019050919050565b600060208201905081810360008301526132778161323b565b9050919050565b7f4e487b7100000000000000000000000000000000000000000000000000000000600052601260045260246000fd5b60006132b8826125e4565b91506132c3836125e4565b9250826132d3576132d261327e565b5b828206905092915050565b60006132e9826125e4565b91506132f4836125e4565b9250826133045761330361327e565b5b828204905092915050565b7f45524337323155524953746f726167653a2055524920736574206f66206e6f6e60008201527f6578697374656e7420746f6b656e000000000000000000000000000000000000602082015250565b600061336b602e83612534565b91506133768261330f565b604082019050919050565b6000602082019050818103600083015261339a8161335e565b9050919050565b7f4552433732313a20617070726f766520746f2063616c6c657200000000000000600082015250565b60006133d7601983612534565b91506133e2826133a1565b602082019050919050565b60006020820190508181036000830152613406816133ca565b9050919050565b7f4552433732313a207472616e7366657220746f206e6f6e20455243373231526560008201527f63656976657220696d706c656d656e7465720000000000000000000000000000602082015250565b6000613469603283612534565b91506134748261340d565b604082019050919050565b600060208201905081810360008301526134988161345c565b9050919050565b600081905092915050565b60006134b582612529565b6134bf818561349f565b93506134cf818560208601612545565b80840191505092915050565b60006134e782856134aa565b91506134f382846134aa565b91508190509392505050565b6000819050919050565b61351a613515826125e4565b6134ff565b82525050565b600061352c8284613509565b60208201915081905092915050565b6000613546826125e4565b91507fffffffffffffffffffffffffffffffffffffffffffffffffffffffffffffffff821415613579576135786130ed565b5b600182019050919050565b600081519050919050565b600082825260208201905092915050565b60006135ab82613584565b6135b5818561358f565b93506135c5818560208601612545565b6135ce81612578565b840191505092915050565b60006080820190506135ee6000830187612679565b6135fb6020830186612679565b613608604083018561273c565b818103606083015261361a81846135a0565b905095945050505050565b6000815190506136348161249a565b92915050565b6000602082840312156136505761364f612464565b5b600061365e84828501613625565b91505092915050565b7f4e487b7100000000000000000000000000000000000000000000000000000000600052603160045260246000fdfea26469706673582212202847a48bd648c1d8b97b1252de2e18c35e878781d51a1a418cf04f6a60cec1c364736f6c63430008090033",
  "linkReferences": {},
  "deployedLinkReferences": {}
}